{
  "contractName": "MinerGlobal",
  "abi": [
    {
      "inputs": [],
      "stateMutability": "nonpayable",
      "type": "constructor"
    },
    {
      "anonymous": false,
      "inputs": [
        {
          "indexed": true,
          "internalType": "address",
          "name": "owner",
          "type": "address"
        },
        {
          "indexed": true,
          "internalType": "address",
          "name": "approved",
          "type": "address"
        },
        {
          "indexed": true,
          "internalType": "uint256",
          "name": "tokenId",
          "type": "uint256"
        }
      ],
      "name": "Approval",
      "type": "event"
    },
    {
      "anonymous": false,
      "inputs": [
        {
          "indexed": true,
          "internalType": "address",
          "name": "owner",
          "type": "address"
        },
        {
          "indexed": true,
          "internalType": "address",
          "name": "operator",
          "type": "address"
        },
        {
          "indexed": false,
          "internalType": "bool",
          "name": "approved",
          "type": "bool"
        }
      ],
      "name": "ApprovalForAll",
      "type": "event"
    },
    {
      "anonymous": false,
      "inputs": [
        {
          "indexed": true,
          "internalType": "address",
          "name": "previousOwner",
          "type": "address"
        },
        {
          "indexed": true,
          "internalType": "address",
          "name": "newOwner",
          "type": "address"
        }
      ],
      "name": "OwnershipTransferred",
      "type": "event"
    },
    {
      "anonymous": false,
      "inputs": [
        {
          "indexed": true,
          "internalType": "address",
          "name": "from",
          "type": "address"
        },
        {
          "indexed": true,
          "internalType": "address",
          "name": "to",
          "type": "address"
        },
        {
          "indexed": true,
          "internalType": "uint256",
          "name": "tokenId",
          "type": "uint256"
        }
      ],
      "name": "Transfer",
      "type": "event"
    },
    {
      "inputs": [],
      "name": "MAX_MINT_PER_TX",
      "outputs": [
        {
          "internalType": "uint256",
          "name": "",
          "type": "uint256"
        }
      ],
      "stateMutability": "view",
      "type": "function",
      "constant": true
    },
    {
      "inputs": [],
      "name": "MAX_PRESALE_SUPPLY",
      "outputs": [
        {
          "internalType": "uint256",
          "name": "",
          "type": "uint256"
        }
      ],
      "stateMutability": "view",
      "type": "function",
      "constant": true
    },
    {
      "inputs": [],
      "name": "MAX_SUPPLY",
      "outputs": [
        {
          "internalType": "uint256",
          "name": "",
          "type": "uint256"
        }
      ],
      "stateMutability": "view",
      "type": "function",
      "constant": true
    },
    {
      "inputs": [],
      "name": "a1",
      "outputs": [
        {
          "internalType": "address",
          "name": "",
          "type": "address"
        }
      ],
      "stateMutability": "view",
      "type": "function",
      "constant": true
    },
    {
      "inputs": [],
      "name": "a2",
      "outputs": [
        {
          "internalType": "address",
          "name": "",
          "type": "address"
        }
      ],
      "stateMutability": "view",
      "type": "function",
      "constant": true
    },
    {
      "inputs": [],
      "name": "a3",
      "outputs": [
        {
          "internalType": "address",
          "name": "",
          "type": "address"
        }
      ],
      "stateMutability": "view",
      "type": "function",
      "constant": true
    },
    {
      "inputs": [
        {
          "internalType": "address",
          "name": "to",
          "type": "address"
        },
        {
          "internalType": "uint256",
          "name": "tokenId",
          "type": "uint256"
        }
      ],
      "name": "approve",
      "outputs": [],
      "stateMutability": "nonpayable",
      "type": "function"
    },
    {
      "inputs": [
        {
          "internalType": "address",
          "name": "owner",
          "type": "address"
        }
      ],
      "name": "balanceOf",
      "outputs": [
        {
          "internalType": "uint256",
          "name": "",
          "type": "uint256"
        }
      ],
      "stateMutability": "view",
      "type": "function",
      "constant": true
    },
    {
      "inputs": [],
      "name": "baseTokenURI",
      "outputs": [
        {
          "internalType": "string",
          "name": "",
          "type": "string"
        }
      ],
      "stateMutability": "view",
      "type": "function",
      "constant": true
    },
    {
      "inputs": [
        {
          "internalType": "uint256",
          "name": "tokenId",
          "type": "uint256"
        }
      ],
      "name": "getApproved",
      "outputs": [
        {
          "internalType": "address",
          "name": "",
          "type": "address"
        }
      ],
      "stateMutability": "view",
      "type": "function",
      "constant": true
    },
    {
      "inputs": [],
      "name": "initial_price",
      "outputs": [
        {
          "internalType": "uint256",
          "name": "",
          "type": "uint256"
        }
      ],
      "stateMutability": "view",
      "type": "function",
      "constant": true
    },
    {
      "inputs": [
        {
          "internalType": "address",
          "name": "owner",
          "type": "address"
        },
        {
          "internalType": "address",
          "name": "operator",
          "type": "address"
        }
      ],
      "name": "isApprovedForAll",
      "outputs": [
        {
          "internalType": "bool",
          "name": "",
          "type": "bool"
        }
      ],
      "stateMutability": "view",
      "type": "function",
      "constant": true
    },
    {
      "inputs": [],
      "name": "name",
      "outputs": [
        {
          "internalType": "string",
          "name": "",
          "type": "string"
        }
      ],
      "stateMutability": "view",
      "type": "function",
      "constant": true
    },
    {
      "inputs": [],
      "name": "owner",
      "outputs": [
        {
          "internalType": "address",
          "name": "",
          "type": "address"
        }
      ],
      "stateMutability": "view",
      "type": "function",
      "constant": true
    },
    {
      "inputs": [
        {
          "internalType": "uint256",
          "name": "tokenId",
          "type": "uint256"
        }
      ],
      "name": "ownerOf",
      "outputs": [
        {
          "internalType": "address",
          "name": "",
          "type": "address"
        }
      ],
      "stateMutability": "view",
      "type": "function",
      "constant": true
    },
    {
      "inputs": [],
      "name": "presaleActive",
      "outputs": [
        {
          "internalType": "bool",
          "name": "",
          "type": "bool"
        }
      ],
      "stateMutability": "view",
      "type": "function",
      "constant": true
    },
    {
      "inputs": [],
      "name": "price",
      "outputs": [
        {
          "internalType": "uint256",
          "name": "",
          "type": "uint256"
        }
      ],
      "stateMutability": "view",
      "type": "function",
      "constant": true
    },
    {
      "inputs": [],
      "name": "renounceOwnership",
      "outputs": [],
      "stateMutability": "nonpayable",
      "type": "function"
    },
    {
      "inputs": [],
      "name": "reserved",
      "outputs": [
        {
          "internalType": "uint256",
          "name": "",
          "type": "uint256"
        }
      ],
      "stateMutability": "view",
      "type": "function",
      "constant": true
    },
    {
      "inputs": [
        {
          "internalType": "address",
          "name": "from",
          "type": "address"
        },
        {
          "internalType": "address",
          "name": "to",
          "type": "address"
        },
        {
          "internalType": "uint256",
          "name": "tokenId",
          "type": "uint256"
        }
      ],
      "name": "safeTransferFrom",
      "outputs": [],
      "stateMutability": "nonpayable",
      "type": "function"
    },
    {
      "inputs": [
        {
          "internalType": "address",
          "name": "from",
          "type": "address"
        },
        {
          "internalType": "address",
          "name": "to",
          "type": "address"
        },
        {
          "internalType": "uint256",
          "name": "tokenId",
          "type": "uint256"
        },
        {
          "internalType": "bytes",
          "name": "_data",
          "type": "bytes"
        }
      ],
      "name": "safeTransferFrom",
      "outputs": [],
      "stateMutability": "nonpayable",
      "type": "function"
    },
    {
      "inputs": [],
      "name": "saleActive",
      "outputs": [
        {
          "internalType": "bool",
          "name": "",
          "type": "bool"
        }
      ],
      "stateMutability": "view",
      "type": "function",
      "constant": true
    },
    {
      "inputs": [
        {
          "internalType": "address",
          "name": "operator",
          "type": "address"
        },
        {
          "internalType": "bool",
          "name": "approved",
          "type": "bool"
        }
      ],
      "name": "setApprovalForAll",
      "outputs": [],
      "stateMutability": "nonpayable",
      "type": "function"
    },
    {
      "inputs": [
        {
          "internalType": "bytes4",
          "name": "interfaceId",
          "type": "bytes4"
        }
      ],
      "name": "supportsInterface",
      "outputs": [
        {
          "internalType": "bool",
          "name": "",
          "type": "bool"
        }
      ],
      "stateMutability": "view",
      "type": "function",
      "constant": true
    },
    {
      "inputs": [],
      "name": "symbol",
      "outputs": [
        {
          "internalType": "string",
          "name": "",
          "type": "string"
        }
      ],
      "stateMutability": "view",
      "type": "function",
      "constant": true
    },
    {
      "inputs": [
        {
          "internalType": "uint256",
          "name": "index",
          "type": "uint256"
        }
      ],
      "name": "tokenByIndex",
      "outputs": [
        {
          "internalType": "uint256",
          "name": "",
          "type": "uint256"
        }
      ],
      "stateMutability": "view",
      "type": "function",
      "constant": true
    },
    {
      "inputs": [
        {
          "internalType": "address",
          "name": "owner",
          "type": "address"
        },
        {
          "internalType": "uint256",
          "name": "index",
          "type": "uint256"
        }
      ],
      "name": "tokenOfOwnerByIndex",
      "outputs": [
        {
          "internalType": "uint256",
          "name": "",
          "type": "uint256"
        }
      ],
      "stateMutability": "view",
      "type": "function",
      "constant": true
    },
    {
      "inputs": [
        {
          "internalType": "uint256",
          "name": "tokenId",
          "type": "uint256"
        }
      ],
      "name": "tokenURI",
      "outputs": [
        {
          "internalType": "string",
          "name": "",
          "type": "string"
        }
      ],
      "stateMutability": "view",
      "type": "function",
      "constant": true
    },
    {
      "inputs": [],
      "name": "totalSupply",
      "outputs": [
        {
          "internalType": "uint256",
          "name": "",
          "type": "uint256"
        }
      ],
      "stateMutability": "view",
      "type": "function",
      "constant": true
    },
    {
      "inputs": [
        {
          "internalType": "address",
          "name": "from",
          "type": "address"
        },
        {
          "internalType": "address",
          "name": "to",
          "type": "address"
        },
        {
          "internalType": "uint256",
          "name": "tokenId",
          "type": "uint256"
        }
      ],
      "name": "transferFrom",
      "outputs": [],
      "stateMutability": "nonpayable",
      "type": "function"
    },
    {
      "inputs": [
        {
          "internalType": "address",
          "name": "newOwner",
          "type": "address"
        }
      ],
      "name": "transferOwnership",
      "outputs": [],
      "stateMutability": "nonpayable",
      "type": "function"
    },
    {
      "inputs": [],
      "name": "whitelistActive",
      "outputs": [
        {
          "internalType": "bool",
          "name": "",
          "type": "bool"
        }
      ],
      "stateMutability": "view",
      "type": "function",
      "constant": true
    },
    {
      "inputs": [
        {
          "internalType": "address",
          "name": "",
          "type": "address"
        }
      ],
      "name": "whitelistReserved",
      "outputs": [
        {
          "internalType": "uint256",
          "name": "",
          "type": "uint256"
        }
      ],
      "stateMutability": "view",
      "type": "function",
      "constant": true
    },
    {
      "inputs": [
        {
          "internalType": "address",
          "name": "addr",
          "type": "address"
        }
      ],
      "name": "tokensOfOwner",
      "outputs": [
        {
          "internalType": "uint256[]",
          "name": "",
          "type": "uint256[]"
        }
      ],
      "stateMutability": "view",
      "type": "function",
      "constant": true
    },
    {
      "inputs": [
        {
          "internalType": "uint256",
          "name": "_amount",
          "type": "uint256"
        }
      ],
      "name": "mintWhitelist",
      "outputs": [],
      "stateMutability": "payable",
      "type": "function",
      "payable": true
    },
    {
      "inputs": [
        {
          "internalType": "uint256",
          "name": "_amount",
          "type": "uint256"
        }
      ],
      "name": "mintPresale",
      "outputs": [],
      "stateMutability": "payable",
      "type": "function",
      "payable": true
    },
    {
      "inputs": [
        {
          "internalType": "uint256",
          "name": "_amount",
          "type": "uint256"
        }
      ],
      "name": "mintToken",
      "outputs": [],
      "stateMutability": "payable",
      "type": "function",
      "payable": true
    },
    {
      "inputs": [
        {
          "internalType": "uint256",
          "name": "_amount",
          "type": "uint256"
        }
      ],
      "name": "mintReserved",
      "outputs": [],
      "stateMutability": "nonpayable",
      "type": "function"
    },
    {
      "inputs": [
        {
          "internalType": "address[]",
          "name": "_a",
          "type": "address[]"
        },
        {
          "internalType": "uint256[]",
          "name": "_amount",
          "type": "uint256[]"
        }
      ],
      "name": "editWhitelistReserved",
      "outputs": [],
      "stateMutability": "nonpayable",
      "type": "function"
    },
    {
      "inputs": [
        {
          "internalType": "bool",
          "name": "val",
          "type": "bool"
        }
      ],
      "name": "setWhitelistActive",
      "outputs": [],
      "stateMutability": "nonpayable",
      "type": "function"
    },
    {
      "inputs": [
        {
          "internalType": "bool",
          "name": "val",
          "type": "bool"
        }
      ],
      "name": "setPresaleActive",
      "outputs": [],
      "stateMutability": "nonpayable",
      "type": "function"
    },
    {
      "inputs": [
        {
          "internalType": "bool",
          "name": "val",
          "type": "bool"
        }
      ],
      "name": "setSaleActive",
      "outputs": [],
      "stateMutability": "nonpayable",
      "type": "function"
    },
    {
      "inputs": [
        {
          "internalType": "string",
          "name": "baseURI",
          "type": "string"
        }
      ],
      "name": "setBaseURI",
      "outputs": [],
      "stateMutability": "nonpayable",
      "type": "function"
    },
    {
      "inputs": [
        {
          "internalType": "uint256",
          "name": "newPrice",
          "type": "uint256"
        }
      ],
      "name": "setPrice",
      "outputs": [],
      "stateMutability": "nonpayable",
      "type": "function"
    },
    {
      "inputs": [
        {
          "internalType": "address[]",
          "name": "_a",
          "type": "address[]"
        }
      ],
      "name": "setAddresses",
      "outputs": [],
      "stateMutability": "nonpayable",
      "type": "function"
    },
    {
      "inputs": [
        {
          "internalType": "uint256",
          "name": "amount",
          "type": "uint256"
        }
      ],
      "name": "withdrawTeam",
      "outputs": [],
      "stateMutability": "payable",
      "type": "function",
      "payable": true
    }
  ],
  "bytecode": "0x60806040526000600a60146101000a81548160ff0219169083151502179055506000600a60156101000a81548160ff0219169083151502179055506000600a60166101000a81548160ff0219169083151502179055506096600b55668e1bc9bf040000600c556040518060400160405280601a81526020017f68747470733a2f2f3135372e3234352e3132362e31342e696f2f000000000000815250600e9080519060200190620000b29291906200025e565b50348015620000c057600080fd5b506040518060400160405280600c81526020017f4d696e657220476c6f62616c00000000000000000000000000000000000000008152506040518060400160405280600281526020017f4d470000000000000000000000000000000000000000000000000000000000008152508160009080519060200190620001459291906200025e565b5080600190805190602001906200015e9291906200025e565b50505062000181620001756200019060201b60201c565b6200019860201b60201c565b600c54600d8190555062000373565b600033905090565b6000600a60009054906101000a900473ffffffffffffffffffffffffffffffffffffffff16905081600a60006101000a81548173ffffffffffffffffffffffffffffffffffffffff021916908373ffffffffffffffffffffffffffffffffffffffff1602179055508173ffffffffffffffffffffffffffffffffffffffff168173ffffffffffffffffffffffffffffffffffffffff167f8be0079c531659141344cd1fd0a4f28419497f9722a3daafe3b4186f6b6457e060405160405180910390a35050565b8280546200026c906200033d565b90600052602060002090601f016020900481019282620002905760008555620002dc565b82601f10620002ab57805160ff1916838001178555620002dc565b82800160010185558215620002dc579182015b82811115620002db578251825591602001919060010190620002be565b5b509050620002eb9190620002ef565b5090565b5b808211156200030a576000816000905550600101620002f0565b5090565b7f4e487b7100000000000000000000000000000000000000000000000000000000600052602260045260246000fd5b600060028204905060018216806200035657607f821691505b602082108114156200036d576200036c6200030e565b5b50919050565b61536f80620003836000396000f3fe60806040526004361061027d5760003560e01c80638462151c1161014f578063b88d4fde116100c1578063e985e9c51161007a578063e985e9c514610992578063f14c0bcc146109cf578063f2fde38b146109f8578063f759867a14610a21578063fd2b049214610a3d578063fe60d12c14610a595761027d565b8063b88d4fde14610893578063b9571721146108bc578063c3b754dc146108e5578063c634d0321461090e578063c87b56dd1461092a578063d547cfb7146109675761027d565b806395d89b411161011357806395d89b4114610795578063969e9d0c146107c05780639a5d140b146107eb578063a035b1fe14610814578063a22cb4651461083f578063ab3f5a1a146108685761027d565b80638462151c146106ae5780638da5cb5b146106eb5780638ecad7211461071657806391b7f5ed146107415780639426eef81461076a5761027d565b806342842e0e116101f357806368428a1b116101ac57806368428a1b1461059e5780636b8dc355146105c957806370a08231146105f4578063715018a61461063157806372e3a3eb14610648578063841718a6146106855761027d565b806342842e0e1461048b5780634618163e146104b45780634f6ccce7146104d057806353135ca01461050d57806355f804b3146105385780636352211e146105615761027d565b8063119552a111610245578063119552a11461037b57806318160ddd146103a657806323b872dd146103d15780632f745c59146103fa57806332cb6b0c146104375780633f8121a2146104625761027d565b806301ffc9a71461028257806302ce5813146102bf57806306fdde03146102ea578063081812fc14610315578063095ea7b314610352575b600080fd5b34801561028e57600080fd5b506102a960048036038101906102a491906137a0565b610a84565b6040516102b691906137e8565b60405180910390f35b3480156102cb57600080fd5b506102d4610afe565b6040516102e191906137e8565b60405180910390f35b3480156102f657600080fd5b506102ff610b11565b60405161030c919061389c565b60405180910390f35b34801561032157600080fd5b5061033c600480360381019061033791906138f4565b610ba3565b6040516103499190613962565b60405180910390f35b34801561035e57600080fd5b50610379600480360381019061037491906139a9565b610c28565b005b34801561038757600080fd5b50610390610d40565b60405161039d9190613962565b60405180910390f35b3480156103b257600080fd5b506103bb610d66565b6040516103c891906139f8565b60405180910390f35b3480156103dd57600080fd5b506103f860048036038101906103f39190613a13565b610d73565b005b34801561040657600080fd5b50610421600480360381019061041c91906139a9565b610dd3565b60405161042e91906139f8565b60405180910390f35b34801561044357600080fd5b5061044c610e78565b60405161045991906139f8565b60405180910390f35b34801561046e57600080fd5b5061048960048036038101906104849190613a92565b610e7e565b005b34801561049757600080fd5b506104b260048036038101906104ad9190613a13565b610f17565b005b6104ce60048036038101906104c991906138f4565b610f37565b005b3480156104dc57600080fd5b506104f760048036038101906104f291906138f4565b611183565b60405161050491906139f8565b60405180910390f35b34801561051957600080fd5b506105226111f4565b60405161052f91906137e8565b60405180910390f35b34801561054457600080fd5b5061055f600480360381019061055a9190613bf4565b611207565b005b34801561056d57600080fd5b50610588600480360381019061058391906138f4565b61129d565b6040516105959190613962565b60405180910390f35b3480156105aa57600080fd5b506105b361134f565b6040516105c091906137e8565b60405180910390f35b3480156105d557600080fd5b506105de611362565b6040516105eb91906139f8565b60405180910390f35b34801561060057600080fd5b5061061b60048036038101906106169190613c3d565b611368565b60405161062891906139f8565b60405180910390f35b34801561063d57600080fd5b50610646611420565b005b34801561065457600080fd5b5061066f600480360381019061066a9190613c3d565b6114a8565b60405161067c91906139f8565b60405180910390f35b34801561069157600080fd5b506106ac60048036038101906106a79190613a92565b6114c0565b005b3480156106ba57600080fd5b506106d560048036038101906106d09190613c3d565b611559565b6040516106e29190613d28565b60405180910390f35b3480156106f757600080fd5b50610700611607565b60405161070d9190613962565b60405180910390f35b34801561072257600080fd5b5061072b611631565b60405161073891906139f8565b60405180910390f35b34801561074d57600080fd5b50610768600480360381019061076391906138f4565b611636565b005b34801561077657600080fd5b5061077f6116bc565b60405161078c9190613962565b60405180910390f35b3480156107a157600080fd5b506107aa6116e2565b6040516107b7919061389c565b60405180910390f35b3480156107cc57600080fd5b506107d5611774565b6040516107e29190613962565b60405180910390f35b3480156107f757600080fd5b50610812600480360381019061080d91906138f4565b61179a565b005b34801561082057600080fd5b506108296118b8565b60405161083691906139f8565b60405180910390f35b34801561084b57600080fd5b5061086660048036038101906108619190613d4a565b6118be565b005b34801561087457600080fd5b5061087d6118d4565b60405161088a91906139f8565b60405180910390f35b34801561089f57600080fd5b506108ba60048036038101906108b59190613e2b565b6118da565b005b3480156108c857600080fd5b506108e360048036038101906108de9190613f76565b61193c565b005b3480156108f157600080fd5b5061090c60048036038101906109079190613a92565b611acf565b005b610928600480360381019061092391906138f4565b611b68565b005b34801561093657600080fd5b50610951600480360381019061094c91906138f4565b611cea565b60405161095e919061389c565b60405180910390f35b34801561097357600080fd5b5061097c611d91565b604051610989919061389c565b60405180910390f35b34801561099e57600080fd5b506109b960048036038101906109b49190613fbf565b611e1f565b6040516109c691906137e8565b60405180910390f35b3480156109db57600080fd5b506109f660048036038101906109f191906140c2565b611eb3565b005b348015610a0457600080fd5b50610a1f6004803603810190610a1a9190613c3d565b611fcb565b005b610a3b6004803603810190610a3691906138f4565b6120c3565b005b610a576004803603810190610a5291906138f4565b612245565b005b348015610a6557600080fd5b50610a6e61241a565b604051610a7b91906139f8565b60405180910390f35b60007f780e9d63000000000000000000000000000000000000000000000000000000007bffffffffffffffffffffffffffffffffffffffffffffffffffffffff1916827bffffffffffffffffffffffffffffffffffffffffffffffffffffffff19161480610af75750610af682612420565b5b9050919050565b600a60159054906101000a900460ff1681565b606060008054610b2090614169565b80601f0160208091040260200160405190810160405280929190818152602001828054610b4c90614169565b8015610b995780601f10610b6e57610100808354040283529160200191610b99565b820191906000526020600020905b815481529060010190602001808311610b7c57829003601f168201915b5050505050905090565b6000610bae82612502565b610bed576040517f08c379a0000000000000000000000000000000000000000000000000000000008152600401610be49061420d565b60405180910390fd5b6004600083815260200190815260200160002060009054906101000a900473ffffffffffffffffffffffffffffffffffffffff169050919050565b6000610c338261129d565b90508073ffffffffffffffffffffffffffffffffffffffff168373ffffffffffffffffffffffffffffffffffffffff161415610ca4576040517f08c379a0000000000000000000000000000000000000000000000000000000008152600401610c9b9061429f565b60405180910390fd5b8073ffffffffffffffffffffffffffffffffffffffff16610cc361256e565b73ffffffffffffffffffffffffffffffffffffffff161480610cf25750610cf181610cec61256e565b611e1f565b5b610d31576040517f08c379a0000000000000000000000000000000000000000000000000000000008152600401610d2890614331565b60405180910390fd5b610d3b8383612576565b505050565b600f60009054906101000a900473ffffffffffffffffffffffffffffffffffffffff1681565b6000600880549050905090565b610d84610d7e61256e565b8261262f565b610dc3576040517f08c379a0000000000000000000000000000000000000000000000000000000008152600401610dba906143c3565b60405180910390fd5b610dce83838361270d565b505050565b6000610dde83611368565b8210610e1f576040517f08c379a0000000000000000000000000000000000000000000000000000000008152600401610e1690614455565b60405180910390fd5b600660008473ffffffffffffffffffffffffffffffffffffffff1673ffffffffffffffffffffffffffffffffffffffff168152602001908152602001600020600083815260200190815260200160002054905092915050565b61271081565b610e8661256e565b73ffffffffffffffffffffffffffffffffffffffff16610ea4611607565b73ffffffffffffffffffffffffffffffffffffffff1614610efa576040517f08c379a0000000000000000000000000000000000000000000000000000000008152600401610ef1906144c1565b60405180910390fd5b80600a60166101000a81548160ff02191690831515021790555050565b610f32838383604051806020016040528060008152506118da565b505050565b6000610f41610d66565b90506000601260003373ffffffffffffffffffffffffffffffffffffffff1673ffffffffffffffffffffffffffffffffffffffff168152602001908152602001600020549050600a60159054906101000a900460ff16610fd6576040517f08c379a0000000000000000000000000000000000000000000000000000000008152600401610fcd9061452d565b60405180910390fd5b60008111611019576040517f08c379a0000000000000000000000000000000000000000000000000000000008152600401611010906145bf565b60405180910390fd5b8083111561105c576040517f08c379a00000000000000000000000000000000000000000000000000000000081526004016110539061462b565b60405180910390fd5b612710838361106b919061467a565b11156110ac576040517f08c379a00000000000000000000000000000000000000000000000000000000081526004016110a39061471c565b60405180910390fd5b82600d546110ba919061473c565b34146110fb576040517f08c379a00000000000000000000000000000000000000000000000000000000081526004016110f2906147e2565b60405180910390fd5b82816111079190614802565b601260003373ffffffffffffffffffffffffffffffffffffffff1673ffffffffffffffffffffffffffffffffffffffff1681526020019081526020016000208190555060005b8381101561117d5761116a338285611165919061467a565b612974565b808061117590614836565b91505061114d565b50505050565b600061118d610d66565b82106111ce576040517f08c379a00000000000000000000000000000000000000000000000000000000081526004016111c5906148f1565b60405180910390fd5b600882815481106111e2576111e1614911565b5b90600052602060002001549050919050565b600a60169054906101000a900460ff1681565b61120f61256e565b73ffffffffffffffffffffffffffffffffffffffff1661122d611607565b73ffffffffffffffffffffffffffffffffffffffff1614611283576040517f08c379a000000000000000000000000000000000000000000000000000000000815260040161127a906144c1565b60405180910390fd5b80600e9080519060200190611299929190613691565b5050565b6000806002600084815260200190815260200160002060009054906101000a900473ffffffffffffffffffffffffffffffffffffffff169050600073ffffffffffffffffffffffffffffffffffffffff168173ffffffffffffffffffffffffffffffffffffffff161415611346576040517f08c379a000000000000000000000000000000000000000000000000000000000815260040161133d906149b2565b60405180910390fd5b80915050919050565b600a60149054906101000a900460ff1681565b6101f481565b60008073ffffffffffffffffffffffffffffffffffffffff168273ffffffffffffffffffffffffffffffffffffffff1614156113d9576040517f08c379a00000000000000000000000000000000000000000000000000000000081526004016113d090614a44565b60405180910390fd5b600360008373ffffffffffffffffffffffffffffffffffffffff1673ffffffffffffffffffffffffffffffffffffffff168152602001908152602001600020549050919050565b61142861256e565b73ffffffffffffffffffffffffffffffffffffffff16611446611607565b73ffffffffffffffffffffffffffffffffffffffff161461149c576040517f08c379a0000000000000000000000000000000000000000000000000000000008152600401611493906144c1565b60405180910390fd5b6114a66000612992565b565b60126020528060005260406000206000915090505481565b6114c861256e565b73ffffffffffffffffffffffffffffffffffffffff166114e6611607565b73ffffffffffffffffffffffffffffffffffffffff161461153c576040517f08c379a0000000000000000000000000000000000000000000000000000000008152600401611533906144c1565b60405180910390fd5b80600a60146101000a81548160ff02191690831515021790555050565b6060600061156683611368565b905060008167ffffffffffffffff81111561158457611583613ac9565b5b6040519080825280602002602001820160405280156115b25781602001602082028036833780820191505090505b50905060005b828110156115fc576115ca8582610dd3565b8282815181106115dd576115dc614911565b5b60200260200101818152505080806115f490614836565b9150506115b8565b508092505050919050565b6000600a60009054906101000a900473ffffffffffffffffffffffffffffffffffffffff16905090565b601481565b61163e61256e565b73ffffffffffffffffffffffffffffffffffffffff1661165c611607565b73ffffffffffffffffffffffffffffffffffffffff16146116b2576040517f08c379a00000000000000000000000000000000000000000000000000000000081526004016116a9906144c1565b60405180910390fd5b80600d8190555050565b601160009054906101000a900473ffffffffffffffffffffffffffffffffffffffff1681565b6060600180546116f190614169565b80601f016020809104026020016040519081016040528092919081815260200182805461171d90614169565b801561176a5780601f1061173f5761010080835404028352916020019161176a565b820191906000526020600020905b81548152906001019060200180831161174d57829003601f168201915b5050505050905090565b601060009054906101000a900473ffffffffffffffffffffffffffffffffffffffff1681565b6117a261256e565b73ffffffffffffffffffffffffffffffffffffffff166117c0611607565b73ffffffffffffffffffffffffffffffffffffffff1614611816576040517f08c379a000000000000000000000000000000000000000000000000000000000815260040161180d906144c1565b60405180910390fd5b600b5481111561185b576040517f08c379a000000000000000000000000000000000000000000000000000000000815260040161185290614ad6565b60405180910390fd5b80600b600082825461186d9190614802565b92505081905550600061187e610d66565b905060005b828110156118b3576118a033828461189b919061467a565b612974565b80806118ab90614836565b915050611883565b505050565b600d5481565b6118d06118c961256e565b8383612a58565b5050565b600c5481565b6118eb6118e561256e565b8361262f565b61192a576040517f08c379a0000000000000000000000000000000000000000000000000000000008152600401611921906143c3565b60405180910390fd5b61193684848484612bc5565b50505050565b61194461256e565b73ffffffffffffffffffffffffffffffffffffffff16611962611607565b73ffffffffffffffffffffffffffffffffffffffff16146119b8576040517f08c379a00000000000000000000000000000000000000000000000000000000081526004016119af906144c1565b60405180910390fd5b806000815181106119cc576119cb614911565b5b6020026020010151600f60006101000a81548173ffffffffffffffffffffffffffffffffffffffff021916908373ffffffffffffffffffffffffffffffffffffffff16021790555080600181518110611a2857611a27614911565b5b6020026020010151601060006101000a81548173ffffffffffffffffffffffffffffffffffffffff021916908373ffffffffffffffffffffffffffffffffffffffff16021790555080600281518110611a8457611a83614911565b5b6020026020010151601160006101000a81548173ffffffffffffffffffffffffffffffffffffffff021916908373ffffffffffffffffffffffffffffffffffffffff16021790555050565b611ad761256e565b73ffffffffffffffffffffffffffffffffffffffff16611af5611607565b73ffffffffffffffffffffffffffffffffffffffff1614611b4b576040517f08c379a0000000000000000000000000000000000000000000000000000000008152600401611b42906144c1565b60405180910390fd5b80600a60156101000a81548160ff02191690831515021790555050565b6000611b72610d66565b9050600a60149054906101000a900460ff16611bc3576040517f08c379a0000000000000000000000000000000000000000000000000000000008152600401611bba90614b42565b60405180910390fd5b600082118015611bd4575060148211155b611c13576040517f08c379a0000000000000000000000000000000000000000000000000000000008152600401611c0a90614bd4565b60405180910390fd5b6127108282611c22919061467a565b1115611c63576040517f08c379a0000000000000000000000000000000000000000000000000000000008152600401611c5a9061471c565b60405180910390fd5b81600d54611c71919061473c565b3414611cb2576040517f08c379a0000000000000000000000000000000000000000000000000000000008152600401611ca9906147e2565b60405180910390fd5b60005b82811015611ce557611cd2338284611ccd919061467a565b612974565b8080611cdd90614836565b915050611cb5565b505050565b6060611cf582612502565b611d34576040517f08c379a0000000000000000000000000000000000000000000000000000000008152600401611d2b90614c66565b60405180910390fd5b6000611d3e612c21565b90506000815111611d5e5760405180602001604052806000815250611d89565b80611d6884612cb3565b604051602001611d79929190614cc2565b6040516020818303038152906040525b915050919050565b600e8054611d9e90614169565b80601f0160208091040260200160405190810160405280929190818152602001828054611dca90614169565b8015611e175780601f10611dec57610100808354040283529160200191611e17565b820191906000526020600020905b815481529060010190602001808311611dfa57829003601f168201915b505050505081565b6000600560008473ffffffffffffffffffffffffffffffffffffffff1673ffffffffffffffffffffffffffffffffffffffff16815260200190815260200160002060008373ffffffffffffffffffffffffffffffffffffffff1673ffffffffffffffffffffffffffffffffffffffff16815260200190815260200160002060009054906101000a900460ff16905092915050565b611ebb61256e565b73ffffffffffffffffffffffffffffffffffffffff16611ed9611607565b73ffffffffffffffffffffffffffffffffffffffff1614611f2f576040517f08c379a0000000000000000000000000000000000000000000000000000000008152600401611f26906144c1565b60405180910390fd5b60005b8251811015611fc657818181518110611f4e57611f4d614911565b5b602002602001015160126000858481518110611f6d57611f6c614911565b5b602002602001015173ffffffffffffffffffffffffffffffffffffffff1673ffffffffffffffffffffffffffffffffffffffff168152602001908152602001600020819055508080611fbe90614836565b915050611f32565b505050565b611fd361256e565b73ffffffffffffffffffffffffffffffffffffffff16611ff1611607565b73ffffffffffffffffffffffffffffffffffffffff1614612047576040517f08c379a000000000000000000000000000000000000000000000000000000000815260040161203e906144c1565b60405180910390fd5b600073ffffffffffffffffffffffffffffffffffffffff168173ffffffffffffffffffffffffffffffffffffffff1614156120b7576040517f08c379a00000000000000000000000000000000000000000000000000000000081526004016120ae90614d58565b60405180910390fd5b6120c081612992565b50565b60006120cd610d66565b9050600a60169054906101000a900460ff1661211e576040517f08c379a000000000000000000000000000000000000000000000000000000000815260040161211590614b42565b60405180910390fd5b60008211801561212f575060148211155b61216e576040517f08c379a000000000000000000000000000000000000000000000000000000000815260040161216590614dea565b60405180910390fd5b6101f4828261217d919061467a565b11156121be576040517f08c379a00000000000000000000000000000000000000000000000000000000081526004016121b59061471c565b60405180910390fd5b81600d546121cc919061473c565b341461220d576040517f08c379a0000000000000000000000000000000000000000000000000000000008152600401612204906147e2565b60405180910390fd5b60005b828110156122405761222d338284612228919061467a565b612974565b808061223890614836565b915050612210565b505050565b61224d61256e565b73ffffffffffffffffffffffffffffffffffffffff1661226b611607565b73ffffffffffffffffffffffffffffffffffffffff16146122c1576040517f08c379a00000000000000000000000000000000000000000000000000000000081526004016122b8906144c1565b60405180910390fd5b60006064826122d09190614e39565b9050600f60009054906101000a900473ffffffffffffffffffffffffffffffffffffffff1673ffffffffffffffffffffffffffffffffffffffff166108fc60288361231b919061473c565b9081150290604051600060405180830381858888f1935050505061233e57600080fd5b601060009054906101000a900473ffffffffffffffffffffffffffffffffffffffff1673ffffffffffffffffffffffffffffffffffffffff166108fc601e83612387919061473c565b9081150290604051600060405180830381858888f193505050506123aa57600080fd5b601160009054906101000a900473ffffffffffffffffffffffffffffffffffffffff1673ffffffffffffffffffffffffffffffffffffffff166108fc601e836123f3919061473c565b9081150290604051600060405180830381858888f1935050505061241657600080fd5b5050565b600b5481565b60007f80ac58cd000000000000000000000000000000000000000000000000000000007bffffffffffffffffffffffffffffffffffffffffffffffffffffffff1916827bffffffffffffffffffffffffffffffffffffffffffffffffffffffff191614806124eb57507f5b5e139f000000000000000000000000000000000000000000000000000000007bffffffffffffffffffffffffffffffffffffffffffffffffffffffff1916827bffffffffffffffffffffffffffffffffffffffffffffffffffffffff1916145b806124fb57506124fa82612e14565b5b9050919050565b60008073ffffffffffffffffffffffffffffffffffffffff166002600084815260200190815260200160002060009054906101000a900473ffffffffffffffffffffffffffffffffffffffff1673ffffffffffffffffffffffffffffffffffffffff1614159050919050565b600033905090565b816004600083815260200190815260200160002060006101000a81548173ffffffffffffffffffffffffffffffffffffffff021916908373ffffffffffffffffffffffffffffffffffffffff160217905550808273ffffffffffffffffffffffffffffffffffffffff166125e98361129d565b73ffffffffffffffffffffffffffffffffffffffff167f8c5be1e5ebec7d5bd14f71427d1e84f3dd0314c0f7b2291e5b200ac8c7c3b92560405160405180910390a45050565b600061263a82612502565b612679576040517f08c379a000000000000000000000000000000000000000000000000000000000815260040161267090614edc565b60405180910390fd5b60006126848361129d565b90508073ffffffffffffffffffffffffffffffffffffffff168473ffffffffffffffffffffffffffffffffffffffff1614806126f357508373ffffffffffffffffffffffffffffffffffffffff166126db84610ba3565b73ffffffffffffffffffffffffffffffffffffffff16145b8061270457506127038185611e1f565b5b91505092915050565b8273ffffffffffffffffffffffffffffffffffffffff1661272d8261129d565b73ffffffffffffffffffffffffffffffffffffffff1614612783576040517f08c379a000000000000000000000000000000000000000000000000000000000815260040161277a90614f6e565b60405180910390fd5b600073ffffffffffffffffffffffffffffffffffffffff168273ffffffffffffffffffffffffffffffffffffffff1614156127f3576040517f08c379a00000000000000000000000000000000000000000000000000000000081526004016127ea90615000565b60405180910390fd5b6127fe838383612e7e565b612809600082612576565b6001600360008573ffffffffffffffffffffffffffffffffffffffff1673ffffffffffffffffffffffffffffffffffffffff16815260200190815260200160002060008282546128599190614802565b925050819055506001600360008473ffffffffffffffffffffffffffffffffffffffff1673ffffffffffffffffffffffffffffffffffffffff16815260200190815260200160002060008282546128b0919061467a565b92505081905550816002600083815260200190815260200160002060006101000a81548173ffffffffffffffffffffffffffffffffffffffff021916908373ffffffffffffffffffffffffffffffffffffffff160217905550808273ffffffffffffffffffffffffffffffffffffffff168473ffffffffffffffffffffffffffffffffffffffff167fddf252ad1be2c89b69c2b068fc378daa952ba7f163c4a11628f55a4df523b3ef60405160405180910390a461296f838383612f92565b505050565b61298e828260405180602001604052806000815250612f97565b5050565b6000600a60009054906101000a900473ffffffffffffffffffffffffffffffffffffffff16905081600a60006101000a81548173ffffffffffffffffffffffffffffffffffffffff021916908373ffffffffffffffffffffffffffffffffffffffff1602179055508173ffffffffffffffffffffffffffffffffffffffff168173ffffffffffffffffffffffffffffffffffffffff167f8be0079c531659141344cd1fd0a4f28419497f9722a3daafe3b4186f6b6457e060405160405180910390a35050565b8173ffffffffffffffffffffffffffffffffffffffff168373ffffffffffffffffffffffffffffffffffffffff161415612ac7576040517f08c379a0000000000000000000000000000000000000000000000000000000008152600401612abe9061506c565b60405180910390fd5b80600560008573ffffffffffffffffffffffffffffffffffffffff1673ffffffffffffffffffffffffffffffffffffffff16815260200190815260200160002060008473ffffffffffffffffffffffffffffffffffffffff1673ffffffffffffffffffffffffffffffffffffffff16815260200190815260200160002060006101000a81548160ff0219169083151502179055508173ffffffffffffffffffffffffffffffffffffffff168373ffffffffffffffffffffffffffffffffffffffff167f17307eab39ab6107e8899845ad3d59bd9653f200f220920489ca2b5937696c3183604051612bb891906137e8565b60405180910390a3505050565b612bd084848461270d565b612bdc84848484612ff2565b612c1b576040517f08c379a0000000000000000000000000000000000000000000000000000000008152600401612c12906150fe565b60405180910390fd5b50505050565b6060600e8054612c3090614169565b80601f0160208091040260200160405190810160405280929190818152602001828054612c5c90614169565b8015612ca95780601f10612c7e57610100808354040283529160200191612ca9565b820191906000526020600020905b815481529060010190602001808311612c8c57829003601f168201915b5050505050905090565b60606000821415612cfb576040518060400160405280600181526020017f30000000000000000000000000000000000000000000000000000000000000008152509050612e0f565b600082905060005b60008214612d2d578080612d1690614836565b915050600a82612d269190614e39565b9150612d03565b60008167ffffffffffffffff811115612d4957612d48613ac9565b5b6040519080825280601f01601f191660200182016040528015612d7b5781602001600182028036833780820191505090505b5090505b60008514612e0857600182612d949190614802565b9150600a85612da3919061511e565b6030612daf919061467a565b60f81b818381518110612dc557612dc4614911565b5b60200101907effffffffffffffffffffffffffffffffffffffffffffffffffffffffffffff1916908160001a905350600a85612e019190614e39565b9450612d7f565b8093505050505b919050565b60007f01ffc9a7000000000000000000000000000000000000000000000000000000007bffffffffffffffffffffffffffffffffffffffffffffffffffffffff1916827bffffffffffffffffffffffffffffffffffffffffffffffffffffffff1916149050919050565b612e89838383613189565b600073ffffffffffffffffffffffffffffffffffffffff168373ffffffffffffffffffffffffffffffffffffffff161415612ecc57612ec78161318e565b612f0b565b8173ffffffffffffffffffffffffffffffffffffffff168373ffffffffffffffffffffffffffffffffffffffff1614612f0a57612f0983826131d7565b5b5b600073ffffffffffffffffffffffffffffffffffffffff168273ffffffffffffffffffffffffffffffffffffffff161415612f4e57612f4981613344565b612f8d565b8273ffffffffffffffffffffffffffffffffffffffff168273ffffffffffffffffffffffffffffffffffffffff1614612f8c57612f8b8282613415565b5b5b505050565b505050565b612fa18383613494565b612fae6000848484612ff2565b612fed576040517f08c379a0000000000000000000000000000000000000000000000000000000008152600401612fe4906150fe565b60405180910390fd5b505050565b60006130138473ffffffffffffffffffffffffffffffffffffffff1661366e565b1561317c578373ffffffffffffffffffffffffffffffffffffffff1663150b7a0261303c61256e565b8786866040518563ffffffff1660e01b815260040161305e94939291906151a4565b602060405180830381600087803b15801561307857600080fd5b505af19250505080156130a957506040513d601f19601f820116820180604052508101906130a69190615205565b60015b61312c573d80600081146130d9576040519150601f19603f3d011682016040523d82523d6000602084013e6130de565b606091505b50600081511415613124576040517f08c379a000000000000000000000000000000000000000000000000000000000815260040161311b906150fe565b60405180910390fd5b805181602001fd5b63150b7a0260e01b7bffffffffffffffffffffffffffffffffffffffffffffffffffffffff1916817bffffffffffffffffffffffffffffffffffffffffffffffffffffffff191614915050613181565b600190505b949350505050565b505050565b6008805490506009600083815260200190815260200160002081905550600881908060018154018082558091505060019003906000526020600020016000909190919091505550565b600060016131e484611368565b6131ee9190614802565b90506000600760008481526020019081526020016000205490508181146132d3576000600660008673ffffffffffffffffffffffffffffffffffffffff1673ffffffffffffffffffffffffffffffffffffffff168152602001908152602001600020600084815260200190815260200160002054905080600660008773ffffffffffffffffffffffffffffffffffffffff1673ffffffffffffffffffffffffffffffffffffffff168152602001908152602001600020600084815260200190815260200160002081905550816007600083815260200190815260200160002081905550505b6007600084815260200190815260200160002060009055600660008573ffffffffffffffffffffffffffffffffffffffff1673ffffffffffffffffffffffffffffffffffffffff16815260200190815260200160002060008381526020019081526020016000206000905550505050565b600060016008805490506133589190614802565b905060006009600084815260200190815260200160002054905060006008838154811061338857613387614911565b5b9060005260206000200154905080600883815481106133aa576133a9614911565b5b9060005260206000200181905550816009600083815260200190815260200160002081905550600960008581526020019081526020016000206000905560088054806133f9576133f8615232565b5b6001900381819060005260206000200160009055905550505050565b600061342083611368565b905081600660008573ffffffffffffffffffffffffffffffffffffffff1673ffffffffffffffffffffffffffffffffffffffff168152602001908152602001600020600083815260200190815260200160002081905550806007600084815260200190815260200160002081905550505050565b600073ffffffffffffffffffffffffffffffffffffffff168273ffffffffffffffffffffffffffffffffffffffff161415613504576040517f08c379a00000000000000000000000000000000000000000000000000000000081526004016134fb906152ad565b60405180910390fd5b61350d81612502565b1561354d576040517f08c379a000000000000000000000000000000000000000000000000000000000815260040161354490615319565b60405180910390fd5b61355960008383612e7e565b6001600360008473ffffffffffffffffffffffffffffffffffffffff1673ffffffffffffffffffffffffffffffffffffffff16815260200190815260200160002060008282546135a9919061467a565b92505081905550816002600083815260200190815260200160002060006101000a81548173ffffffffffffffffffffffffffffffffffffffff021916908373ffffffffffffffffffffffffffffffffffffffff160217905550808273ffffffffffffffffffffffffffffffffffffffff16600073ffffffffffffffffffffffffffffffffffffffff167fddf252ad1be2c89b69c2b068fc378daa952ba7f163c4a11628f55a4df523b3ef60405160405180910390a461366a60008383612f92565b5050565b6000808273ffffffffffffffffffffffffffffffffffffffff163b119050919050565b82805461369d90614169565b90600052602060002090601f0160209004810192826136bf5760008555613706565b82601f106136d857805160ff1916838001178555613706565b82800160010185558215613706579182015b828111156137055782518255916020019190600101906136ea565b5b5090506137139190613717565b5090565b5b80821115613730576000816000905550600101613718565b5090565b6000604051905090565b600080fd5b600080fd5b60007fffffffff0000000000000000000000000000000000000000000000000000000082169050919050565b61377d81613748565b811461378857600080fd5b50565b60008135905061379a81613774565b92915050565b6000602082840312156137b6576137b561373e565b5b60006137c48482850161378b565b91505092915050565b60008115159050919050565b6137e2816137cd565b82525050565b60006020820190506137fd60008301846137d9565b92915050565b600081519050919050565b600082825260208201905092915050565b60005b8381101561383d578082015181840152602081019050613822565b8381111561384c576000848401525b50505050565b6000601f19601f8301169050919050565b600061386e82613803565b613878818561380e565b935061388881856020860161381f565b61389181613852565b840191505092915050565b600060208201905081810360008301526138b68184613863565b905092915050565b6000819050919050565b6138d1816138be565b81146138dc57600080fd5b50565b6000813590506138ee816138c8565b92915050565b60006020828403121561390a5761390961373e565b5b6000613918848285016138df565b91505092915050565b600073ffffffffffffffffffffffffffffffffffffffff82169050919050565b600061394c82613921565b9050919050565b61395c81613941565b82525050565b60006020820190506139776000830184613953565b92915050565b61398681613941565b811461399157600080fd5b50565b6000813590506139a38161397d565b92915050565b600080604083850312156139c0576139bf61373e565b5b60006139ce85828601613994565b92505060206139df858286016138df565b9150509250929050565b6139f2816138be565b82525050565b6000602082019050613a0d60008301846139e9565b92915050565b600080600060608486031215613a2c57613a2b61373e565b5b6000613a3a86828701613994565b9350506020613a4b86828701613994565b9250506040613a5c868287016138df565b9150509250925092565b613a6f816137cd565b8114613a7a57600080fd5b50565b600081359050613a8c81613a66565b92915050565b600060208284031215613aa857613aa761373e565b5b6000613ab684828501613a7d565b91505092915050565b600080fd5b600080fd5b7f4e487b7100000000000000000000000000000000000000000000000000000000600052604160045260246000fd5b613b0182613852565b810181811067ffffffffffffffff82111715613b2057613b1f613ac9565b5b80604052505050565b6000613b33613734565b9050613b3f8282613af8565b919050565b600067ffffffffffffffff821115613b5f57613b5e613ac9565b5b613b6882613852565b9050602081019050919050565b82818337600083830152505050565b6000613b97613b9284613b44565b613b29565b905082815260208101848484011115613bb357613bb2613ac4565b5b613bbe848285613b75565b509392505050565b600082601f830112613bdb57613bda613abf565b5b8135613beb848260208601613b84565b91505092915050565b600060208284031215613c0a57613c0961373e565b5b600082013567ffffffffffffffff811115613c2857613c27613743565b5b613c3484828501613bc6565b91505092915050565b600060208284031215613c5357613c5261373e565b5b6000613c6184828501613994565b91505092915050565b600081519050919050565b600082825260208201905092915050565b6000819050602082019050919050565b613c9f816138be565b82525050565b6000613cb18383613c96565b60208301905092915050565b6000602082019050919050565b6000613cd582613c6a565b613cdf8185613c75565b9350613cea83613c86565b8060005b83811015613d1b578151613d028882613ca5565b9750613d0d83613cbd565b925050600181019050613cee565b5085935050505092915050565b60006020820190508181036000830152613d428184613cca565b905092915050565b60008060408385031215613d6157613d6061373e565b5b6000613d6f85828601613994565b9250506020613d8085828601613a7d565b9150509250929050565b600067ffffffffffffffff821115613da557613da4613ac9565b5b613dae82613852565b9050602081019050919050565b6000613dce613dc984613d8a565b613b29565b905082815260208101848484011115613dea57613de9613ac4565b5b613df5848285613b75565b509392505050565b600082601f830112613e1257613e11613abf565b5b8135613e22848260208601613dbb565b91505092915050565b60008060008060808587031215613e4557613e4461373e565b5b6000613e5387828801613994565b9450506020613e6487828801613994565b9350506040613e75878288016138df565b925050606085013567ffffffffffffffff811115613e9657613e95613743565b5b613ea287828801613dfd565b91505092959194509250565b600067ffffffffffffffff821115613ec957613ec8613ac9565b5b602082029050602081019050919050565b600080fd5b6000613ef2613eed84613eae565b613b29565b90508083825260208201905060208402830185811115613f1557613f14613eda565b5b835b81811015613f3e5780613f2a8882613994565b845260208401935050602081019050613f17565b5050509392505050565b600082601f830112613f5d57613f5c613abf565b5b8135613f6d848260208601613edf565b91505092915050565b600060208284031215613f8c57613f8b61373e565b5b600082013567ffffffffffffffff811115613faa57613fa9613743565b5b613fb684828501613f48565b91505092915050565b60008060408385031215613fd657613fd561373e565b5b6000613fe485828601613994565b9250506020613ff585828601613994565b9150509250929050565b600067ffffffffffffffff82111561401a57614019613ac9565b5b602082029050602081019050919050565b600061403e61403984613fff565b613b29565b9050808382526020820190506020840283018581111561406157614060613eda565b5b835b8181101561408a578061407688826138df565b845260208401935050602081019050614063565b5050509392505050565b600082601f8301126140a9576140a8613abf565b5b81356140b984826020860161402b565b91505092915050565b600080604083850312156140d9576140d861373e565b5b600083013567ffffffffffffffff8111156140f7576140f6613743565b5b61410385828601613f48565b925050602083013567ffffffffffffffff81111561412457614123613743565b5b61413085828601614094565b9150509250929050565b7f4e487b7100000000000000000000000000000000000000000000000000000000600052602260045260246000fd5b6000600282049050600182168061418157607f821691505b602082108114156141955761419461413a565b5b50919050565b7f4552433732313a20617070726f76656420717565727920666f72206e6f6e657860008201527f697374656e7420746f6b656e0000000000000000000000000000000000000000602082015250565b60006141f7602c8361380e565b91506142028261419b565b604082019050919050565b60006020820190508181036000830152614226816141ea565b9050919050565b7f4552433732313a20617070726f76616c20746f2063757272656e74206f776e6560008201527f7200000000000000000000000000000000000000000000000000000000000000602082015250565b600061428960218361380e565b91506142948261422d565b604082019050919050565b600060208201905081810360008301526142b88161427c565b9050919050565b7f4552433732313a20617070726f76652063616c6c6572206973206e6f74206f7760008201527f6e6572206e6f7220617070726f76656420666f7220616c6c0000000000000000602082015250565b600061431b60388361380e565b9150614326826142bf565b604082019050919050565b6000602082019050818103600083015261434a8161430e565b9050919050565b7f4552433732313a207472616e736665722063616c6c6572206973206e6f74206f60008201527f776e6572206e6f7220617070726f766564000000000000000000000000000000602082015250565b60006143ad60318361380e565b91506143b882614351565b604082019050919050565b600060208201905081810360008301526143dc816143a0565b9050919050565b7f455243373231456e756d657261626c653a206f776e657220696e646578206f7560008201527f74206f6620626f756e6473000000000000000000000000000000000000000000602082015250565b600061443f602b8361380e565b915061444a826143e3565b604082019050919050565b6000602082019050818103600083015261446e81614432565b9050919050565b7f4f776e61626c653a2063616c6c6572206973206e6f7420746865206f776e6572600082015250565b60006144ab60208361380e565b91506144b682614475565b602082019050919050565b600060208201905081810360008301526144da8161449e565b9050919050565b7f57686974656c6973742069736e27742061637469766500000000000000000000600082015250565b600061451760168361380e565b9150614522826144e1565b602082019050919050565b600060208201905081810360008301526145468161450a565b9050919050565b7f4e6f20746f6b656e7320726573657276656420666f7220796f7572206164647260008201527f6573730000000000000000000000000000000000000000000000000000000000602082015250565b60006145a960238361380e565b91506145b48261454d565b604082019050919050565b600060208201905081810360008301526145d88161459c565b9050919050565b7f43616e2774206d696e74206d6f7265207468616e207265736572766564000000600082015250565b6000614615601d8361380e565b9150614620826145df565b602082019050919050565b6000602082019050818103600083015261464481614608565b9050919050565b7f4e487b7100000000000000000000000000000000000000000000000000000000600052601160045260246000fd5b6000614685826138be565b9150614690836138be565b9250827fffffffffffffffffffffffffffffffffffffffffffffffffffffffffffffffff038211156146c5576146c461464b565b5b828201905092915050565b7f43616e2774206d696e74206d6f7265207468616e206d617820737570706c7900600082015250565b6000614706601f8361380e565b9150614711826146d0565b602082019050919050565b60006020820190508181036000830152614735816146f9565b9050919050565b6000614747826138be565b9150614752836138be565b9250817fffffffffffffffffffffffffffffffffffffffffffffffffffffffffffffffff048311821515161561478b5761478a61464b565b5b828202905092915050565b7f57726f6e6720616d6f756e74206f66204554482073656e740000000000000000600082015250565b60006147cc60188361380e565b91506147d782614796565b602082019050919050565b600060208201905081810360008301526147fb816147bf565b9050919050565b600061480d826138be565b9150614818836138be565b92508282101561482b5761482a61464b565b5b828203905092915050565b6000614841826138be565b91507fffffffffffffffffffffffffffffffffffffffffffffffffffffffffffffffff8214156148745761487361464b565b5b600182019050919050565b7f455243373231456e756d657261626c653a20676c6f62616c20696e646578206f60008201527f7574206f6620626f756e64730000000000000000000000000000000000000000602082015250565b60006148db602c8361380e565b91506148e68261487f565b604082019050919050565b6000602082019050818103600083015261490a816148ce565b9050919050565b7f4e487b7100000000000000000000000000000000000000000000000000000000600052603260045260246000fd5b7f4552433732313a206f776e657220717565727920666f72206e6f6e657869737460008201527f656e7420746f6b656e0000000000000000000000000000000000000000000000602082015250565b600061499c60298361380e565b91506149a782614940565b604082019050919050565b600060208201905081810360008301526149cb8161498f565b9050919050565b7f4552433732313a2062616c616e636520717565727920666f7220746865207a6560008201527f726f206164647265737300000000000000000000000000000000000000000000602082015250565b6000614a2e602a8361380e565b9150614a39826149d2565b604082019050919050565b60006020820190508181036000830152614a5d81614a21565b9050919050565b7f43616e27742072657365727665206d6f7265207468616e2073657420616d6f7560008201527f6e74000000000000000000000000000000000000000000000000000000000000602082015250565b6000614ac060228361380e565b9150614acb82614a64565b604082019050919050565b60006020820190508181036000830152614aef81614ab3565b9050919050565b7f53616c652069736e277420616374697665000000000000000000000000000000600082015250565b6000614b2c60118361380e565b9150614b3782614af6565b602082019050919050565b60006020820190508181036000830152614b5b81614b1f565b9050919050565b7f43616e206f6e6c79206d696e74206265747765656e203120616e64203130207460008201527f6f6b656e73206174206f6e636500000000000000000000000000000000000000602082015250565b6000614bbe602d8361380e565b9150614bc982614b62565b604082019050919050565b60006020820190508181036000830152614bed81614bb1565b9050919050565b7f4552433732314d657461646174613a2055524920717565727920666f72206e6f60008201527f6e6578697374656e7420746f6b656e0000000000000000000000000000000000602082015250565b6000614c50602f8361380e565b9150614c5b82614bf4565b604082019050919050565b60006020820190508181036000830152614c7f81614c43565b9050919050565b600081905092915050565b6000614c9c82613803565b614ca68185614c86565b9350614cb681856020860161381f565b80840191505092915050565b6000614cce8285614c91565b9150614cda8284614c91565b91508190509392505050565b7f4f776e61626c653a206e6577206f776e657220697320746865207a65726f206160008201527f6464726573730000000000000000000000000000000000000000000000000000602082015250565b6000614d4260268361380e565b9150614d4d82614ce6565b604082019050919050565b60006020820190508181036000830152614d7181614d35565b9050919050565b7f43616e206f6e6c79206d696e74206265747765656e203120616e64203230207460008201527f6f6b656e73206174206f6e636500000000000000000000000000000000000000602082015250565b6000614dd4602d8361380e565b9150614ddf82614d78565b604082019050919050565b60006020820190508181036000830152614e0381614dc7565b9050919050565b7f4e487b7100000000000000000000000000000000000000000000000000000000600052601260045260246000fd5b6000614e44826138be565b9150614e4f836138be565b925082614e5f57614e5e614e0a565b5b828204905092915050565b7f4552433732313a206f70657261746f7220717565727920666f72206e6f6e657860008201527f697374656e7420746f6b656e0000000000000000000000000000000000000000602082015250565b6000614ec6602c8361380e565b9150614ed182614e6a565b604082019050919050565b60006020820190508181036000830152614ef581614eb9565b9050919050565b7f4552433732313a207472616e736665722066726f6d20696e636f72726563742060008201527f6f776e6572000000000000000000000000000000000000000000000000000000602082015250565b6000614f5860258361380e565b9150614f6382614efc565b604082019050919050565b60006020820190508181036000830152614f8781614f4b565b9050919050565b7f4552433732313a207472616e7366657220746f20746865207a65726f2061646460008201527f7265737300000000000000000000000000000000000000000000000000000000602082015250565b6000614fea60248361380e565b9150614ff582614f8e565b604082019050919050565b6000602082019050818103600083015261501981614fdd565b9050919050565b7f4552433732313a20617070726f766520746f2063616c6c657200000000000000600082015250565b600061505660198361380e565b915061506182615020565b602082019050919050565b6000602082019050818103600083015261508581615049565b9050919050565b7f4552433732313a207472616e7366657220746f206e6f6e20455243373231526560008201527f63656976657220696d706c656d656e7465720000000000000000000000000000602082015250565b60006150e860328361380e565b91506150f38261508c565b604082019050919050565b60006020820190508181036000830152615117816150db565b9050919050565b6000615129826138be565b9150615134836138be565b92508261514457615143614e0a565b5b828206905092915050565b600081519050919050565b600082825260208201905092915050565b60006151768261514f565b615180818561515a565b935061519081856020860161381f565b61519981613852565b840191505092915050565b60006080820190506151b96000830187613953565b6151c66020830186613953565b6151d360408301856139e9565b81810360608301526151e5818461516b565b905095945050505050565b6000815190506151ff81613774565b92915050565b60006020828403121561521b5761521a61373e565b5b6000615229848285016151f0565b91505092915050565b7f4e487b7100000000000000000000000000000000000000000000000000000000600052603160045260246000fd5b7f4552433732313a206d696e7420746f20746865207a65726f2061646472657373600082015250565b600061529760208361380e565b91506152a282615261565b602082019050919050565b600060208201905081810360008301526152c68161528a565b9050919050565b7f4552433732313a20746f6b656e20616c7265616479206d696e74656400000000600082015250565b6000615303601c8361380e565b915061530e826152cd565b602082019050919050565b60006020820190508181036000830152615332816152f6565b905091905056fea26469706673582212207fde6677c2480261eb4ab026fcd5f46789a78c8c710ec42214b35af304577eef64736f6c63430008090033",
  "immutableReferences": {},
  "source": "// File: ..\\..\\..\\node_modules\\@openzeppelin\\contracts\\utils\\introspection\\IERC165.sol\r\n\r\n\r\n// OpenZeppelin Contracts v4.4.1 (utils/introspection/IERC165.sol)\r\n\r\npragma solidity ^0.8.0;\r\n\r\n/**\r\n * @dev Interface of the ERC165 standard, as defined in the\r\n * https://eips.ethereum.org/EIPS/eip-165[EIP].\r\n *\r\n * Implementers can declare support of contract interfaces, which can then be\r\n * queried by others ({ERC165Checker}).\r\n *\r\n * For an implementation, see {ERC165}.\r\n */\r\ninterface IERC165 {\r\n    /**\r\n     * @dev Returns true if this contract implements the interface defined by\r\n     * `interfaceId`. See the corresponding\r\n     * https://eips.ethereum.org/EIPS/eip-165#how-interfaces-are-identified[EIP section]\r\n     * to learn more about how these ids are created.\r\n     *\r\n     * This function call must use less than 30 000 gas.\r\n     */\r\n    function supportsInterface(bytes4 interfaceId) external view returns (bool);\r\n}\r\n\r\n// File: ..\\..\\..\\node_modules\\@openzeppelin\\contracts\\token\\ERC721\\IERC721.sol\r\n\r\n\r\n// OpenZeppelin Contracts v4.4.1 (token/ERC721/IERC721.sol)\r\n\r\npragma solidity ^0.8.0;\r\n\r\n/**\r\n * @dev Required interface of an ERC721 compliant contract.\r\n */\r\ninterface IERC721 is IERC165 {\r\n    /**\r\n     * @dev Emitted when `tokenId` token is transferred from `from` to `to`.\r\n     */\r\n    event Transfer(address indexed from, address indexed to, uint256 indexed tokenId);\r\n\r\n    /**\r\n     * @dev Emitted when `owner` enables `approved` to manage the `tokenId` token.\r\n     */\r\n    event Approval(address indexed owner, address indexed approved, uint256 indexed tokenId);\r\n\r\n    /**\r\n     * @dev Emitted when `owner` enables or disables (`approved`) `operator` to manage all of its assets.\r\n     */\r\n    event ApprovalForAll(address indexed owner, address indexed operator, bool approved);\r\n\r\n    /**\r\n     * @dev Returns the number of tokens in ``owner``'s account.\r\n     */\r\n    function balanceOf(address owner) external view returns (uint256 balance);\r\n\r\n    /**\r\n     * @dev Returns the owner of the `tokenId` token.\r\n     *\r\n     * Requirements:\r\n     *\r\n     * - `tokenId` must exist.\r\n     */\r\n    function ownerOf(uint256 tokenId) external view returns (address owner);\r\n\r\n    /**\r\n     * @dev Safely transfers `tokenId` token from `from` to `to`, checking first that contract recipients\r\n     * are aware of the ERC721 protocol to prevent tokens from being forever locked.\r\n     *\r\n     * Requirements:\r\n     *\r\n     * - `from` cannot be the zero address.\r\n     * - `to` cannot be the zero address.\r\n     * - `tokenId` token must exist and be owned by `from`.\r\n     * - If the caller is not `from`, it must be have been allowed to move this token by either {approve} or {setApprovalForAll}.\r\n     * - If `to` refers to a smart contract, it must implement {IERC721Receiver-onERC721Received}, which is called upon a safe transfer.\r\n     *\r\n     * Emits a {Transfer} event.\r\n     */\r\n    function safeTransferFrom(\r\n        address from,\r\n        address to,\r\n        uint256 tokenId\r\n    ) external;\r\n\r\n    /**\r\n     * @dev Transfers `tokenId` token from `from` to `to`.\r\n     *\r\n     * WARNING: Usage of this method is discouraged, use {safeTransferFrom} whenever possible.\r\n     *\r\n     * Requirements:\r\n     *\r\n     * - `from` cannot be the zero address.\r\n     * - `to` cannot be the zero address.\r\n     * - `tokenId` token must be owned by `from`.\r\n     * - If the caller is not `from`, it must be approved to move this token by either {approve} or {setApprovalForAll}.     *\r\n     * Emits a {Transfer} event.\r\n     */\r\n    function transferFrom(\r\n        address from,\r\n        address to,\r\n        uint256 tokenId\r\n    ) external;\r\n\r\n    /**\r\n     * @dev Gives permission to `to` to transfer `tokenId` token to another account.\r\n     * The approval is cleared when the token is transferred.\r\n     *\r\n     * Only a single account can be approved at a time, so approving the zero address clears previous approvals.\r\n     *\r\n     * Requirements:\r\n     *\r\n     * - The caller must own the token or be an approved operator.\r\n     * - `tokenId` must exist.\r\n     *\r\n     * Emits an {Approval} event.\r\n     */\r\n    function approve(address to, uint256 tokenId) external;\r\n\r\n    /**\r\n     * @dev Returns the account approved for `tokenId` token.\r\n     *\r\n     * Requirements:\r\n     *\r\n     * - `tokenId` must exist.\r\n     */\r\n    function getApproved(uint256 tokenId) external view returns (address operator);\r\n\r\n    /**\r\n     * @dev Approve or remove `operator` as an operator for the caller.\r\n     * Operators can call {transferFrom} or {safeTransferFrom} for any token owned by the caller.\r\n     *\r\n     * Requirements:\r\n     *\r\n     * - The `operator` cannot be the caller.\r\n     *\r\n     * Emits an {ApprovalForAll} event.\r\n     */\r\n    function setApprovalForAll(address operator, bool _approved) external;\r\n\r\n    /**\r\n     * @dev Returns if the `operator` is allowed to manage all of the assets of `owner`.\r\n     *\r\n     * See {setApprovalForAll}\r\n     */\r\n    function isApprovedForAll(address owner, address operator) external view returns (bool);\r\n\r\n    /**\r\n     * @dev Safely transfers `tokenId` token from `from` to `to`.\r\n     *\r\n     * Requirements:\r\n     *\r\n     * - `from` cannot be the zero address.\r\n     * - `to` cannot be the zero address.\r\n     * - `tokenId` token must exist and be owned by `from`.\r\n     * - If the caller is not `from`, it must be approved to move this token by either {approve} or {setApprovalForAll}.     * - If `to` refers to a smart contract, it must implement {IERC721Receiver-onERC721Received}, which is called upon a safe transfer.\r\n     *\r\n     * Emits a {Transfer} event.\r\n     */\r\n    function safeTransferFrom(\r\n        address from,\r\n        address to,\r\n        uint256 tokenId,\r\n        bytes calldata data\r\n    ) external;\r\n}\r\n\r\n// File: ..\\..\\..\\node_modules\\@openzeppelin\\contracts\\token\\ERC721\\IERC721Receiver.sol\r\n\r\n\r\n// OpenZeppelin Contracts v4.4.1 (token/ERC721/IERC721Receiver.sol)\r\n\r\npragma solidity ^0.8.0;\r\n\r\n/**\r\n * @title ERC721 token receiver interface\r\n * @dev Interface for any contract that wants to support safeTransfers\r\n * from ERC721 asset contracts.\r\n */\r\ninterface IERC721Receiver {\r\n    /**\r\n     * @dev Whenever an {IERC721} `tokenId` token is transferred to this contract via {IERC721-safeTransferFrom}\r\n     * by `operator` from `from`, this function is called.\r\n     *\r\n     * It must return its Solidity selector to confirm the token transfer.\r\n     * If any other value is returned or the interface is not implemented by the recipient, the transfer will be reverted.\r\n     *\r\n     * The selector can be obtained in Solidity with `IERC721.onERC721Received.selector`.\r\n     */\r\n    function onERC721Received(\r\n        address operator,\r\n        address from,\r\n        uint256 tokenId,\r\n        bytes calldata data\r\n    ) external returns (bytes4);\r\n}\r\n\r\n// File: ..\\..\\..\\node_modules\\@openzeppelin\\contracts\\token\\ERC721\\extensions\\IERC721Metadata.sol\r\n\r\n\r\n// OpenZeppelin Contracts v4.4.1 (token/ERC721/extensions/IERC721Metadata.sol)\r\n\r\npragma solidity ^0.8.0;\r\n\r\n/**\r\n * @title ERC-721 Non-Fungible Token Standard, optional metadata extension\r\n * @dev See https://eips.ethereum.org/EIPS/eip-721\r\n */\r\ninterface IERC721Metadata is IERC721 {\r\n    /**\r\n     * @dev Returns the token collection name.\r\n     */\r\n    function name() external view returns (string memory);\r\n\r\n    /**\r\n     * @dev Returns the token collection symbol.\r\n     */\r\n    function symbol() external view returns (string memory);\r\n\r\n    /**\r\n     * @dev Returns the Uniform Resource Identifier (URI) for `tokenId` token.\r\n     */\r\n    function tokenURI(uint256 tokenId) external view returns (string memory);\r\n}\r\n\r\n// File: ..\\..\\..\\node_modules\\@openzeppelin\\contracts\\utils\\Address.sol\r\n\r\n\r\n// OpenZeppelin Contracts (last updated v4.5.0) (utils/Address.sol)\r\n\r\npragma solidity ^0.8.1;\r\n\r\n/**\r\n * @dev Collection of functions related to the address type\r\n */\r\nlibrary Address {\r\n    /**\r\n     * @dev Returns true if `account` is a contract.\r\n     *\r\n     * [IMPORTANT]\r\n     * ====\r\n     * It is unsafe to assume that an address for which this function returns\r\n     * false is an externally-owned account (EOA) and not a contract.\r\n     *\r\n     * Among others, `isContract` will return false for the following\r\n     * types of addresses:\r\n     *\r\n     *  - an externally-owned account\r\n     *  - a contract in construction\r\n     *  - an address where a contract will be created\r\n     *  - an address where a contract lived, but was destroyed\r\n     * ====\r\n     *\r\n     * [IMPORTANT]\r\n     * ====\r\n     * You shouldn't rely on `isContract` to protect against flash loan attacks!\r\n     *\r\n     * Preventing calls from contracts is highly discouraged. It breaks composability, breaks support for smart wallets\r\n     * like Gnosis Safe, and does not provide security since it can be circumvented by calling from a contract\r\n     * constructor.\r\n     * ====\r\n     */\r\n    function isContract(address account) internal view returns (bool) {\r\n        // This method relies on extcodesize/address.code.length, which returns 0\r\n        // for contracts in construction, since the code is only stored at the end\r\n        // of the constructor execution.\r\n\r\n        return account.code.length > 0;\r\n    }\r\n\r\n    /**\r\n     * @dev Replacement for Solidity's `transfer`: sends `amount` wei to\r\n     * `recipient`, forwarding all available gas and reverting on errors.\r\n     *\r\n     * https://eips.ethereum.org/EIPS/eip-1884[EIP1884] increases the gas cost\r\n     * of certain opcodes, possibly making contracts go over the 2300 gas limit\r\n     * imposed by `transfer`, making them unable to receive funds via\r\n     * `transfer`. {sendValue} removes this limitation.\r\n     *\r\n     * https://diligence.consensys.net/posts/2019/09/stop-using-soliditys-transfer-now/[Learn more].\r\n     *\r\n     * IMPORTANT: because control is transferred to `recipient`, care must be\r\n     * taken to not create reentrancy vulnerabilities. Consider using\r\n     * {ReentrancyGuard} or the\r\n     * https://solidity.readthedocs.io/en/v0.5.11/security-considerations.html#use-the-checks-effects-interactions-pattern[checks-effects-interactions pattern].\r\n     */\r\n    function sendValue(address payable recipient, uint256 amount) internal {\r\n        require(address(this).balance >= amount, \"Address: insufficient balance\");\r\n\r\n        (bool success, ) = recipient.call{value: amount}(\"\");\r\n        require(success, \"Address: unable to send value, recipient may have reverted\");\r\n    }\r\n\r\n    /**\r\n     * @dev Performs a Solidity function call using a low level `call`. A\r\n     * plain `call` is an unsafe replacement for a function call: use this\r\n     * function instead.\r\n     *\r\n     * If `target` reverts with a revert reason, it is bubbled up by this\r\n     * function (like regular Solidity function calls).\r\n     *\r\n     * Returns the raw returned data. To convert to the expected return value,\r\n     * use https://solidity.readthedocs.io/en/latest/units-and-global-variables.html?highlight=abi.decode#abi-encoding-and-decoding-functions[`abi.decode`].\r\n     *\r\n     * Requirements:\r\n     *\r\n     * - `target` must be a contract.\r\n     * - calling `target` with `data` must not revert.\r\n     *\r\n     * _Available since v3.1._\r\n     */\r\n    function functionCall(address target, bytes memory data) internal returns (bytes memory) {\r\n        return functionCall(target, data, \"Address: low-level call failed\");\r\n    }\r\n\r\n    /**\r\n     * @dev Same as {xref-Address-functionCall-address-bytes-}[`functionCall`], but with\r\n     * `errorMessage` as a fallback revert reason when `target` reverts.\r\n     *\r\n     * _Available since v3.1._\r\n     */\r\n    function functionCall(\r\n        address target,\r\n        bytes memory data,\r\n        string memory errorMessage\r\n    ) internal returns (bytes memory) {\r\n        return functionCallWithValue(target, data, 0, errorMessage);\r\n    }\r\n\r\n    /**\r\n     * @dev Same as {xref-Address-functionCall-address-bytes-}[`functionCall`],\r\n     * but also transferring `value` wei to `target`.\r\n     *\r\n     * Requirements:\r\n     *\r\n     * - the calling contract must have an ETH balance of at least `value`.\r\n     * - the called Solidity function must be `payable`.\r\n     *\r\n     * _Available since v3.1._\r\n     */\r\n    function functionCallWithValue(\r\n        address target,\r\n        bytes memory data,\r\n        uint256 value\r\n    ) internal returns (bytes memory) {\r\n        return functionCallWithValue(target, data, value, \"Address: low-level call with value failed\");\r\n    }\r\n\r\n    /**\r\n     * @dev Same as {xref-Address-functionCallWithValue-address-bytes-uint256-}[`functionCallWithValue`], but\r\n     * with `errorMessage` as a fallback revert reason when `target` reverts.\r\n     *\r\n     * _Available since v3.1._\r\n     */\r\n    function functionCallWithValue(\r\n        address target,\r\n        bytes memory data,\r\n        uint256 value,\r\n        string memory errorMessage\r\n    ) internal returns (bytes memory) {\r\n        require(address(this).balance >= value, \"Address: insufficient balance for call\");\r\n        require(isContract(target), \"Address: call to non-contract\");\r\n\r\n        (bool success, bytes memory returndata) = target.call{value: value}(data);\r\n        return verifyCallResult(success, returndata, errorMessage);\r\n    }\r\n\r\n    /**\r\n     * @dev Same as {xref-Address-functionCall-address-bytes-}[`functionCall`],\r\n     * but performing a static call.\r\n     *\r\n     * _Available since v3.3._\r\n     */\r\n    function functionStaticCall(address target, bytes memory data) internal view returns (bytes memory) {\r\n        return functionStaticCall(target, data, \"Address: low-level static call failed\");\r\n    }\r\n\r\n    /**\r\n     * @dev Same as {xref-Address-functionCall-address-bytes-string-}[`functionCall`],\r\n     * but performing a static call.\r\n     *\r\n     * _Available since v3.3._\r\n     */\r\n    function functionStaticCall(\r\n        address target,\r\n        bytes memory data,\r\n        string memory errorMessage\r\n    ) internal view returns (bytes memory) {\r\n        require(isContract(target), \"Address: static call to non-contract\");\r\n\r\n        (bool success, bytes memory returndata) = target.staticcall(data);\r\n        return verifyCallResult(success, returndata, errorMessage);\r\n    }\r\n\r\n    /**\r\n     * @dev Same as {xref-Address-functionCall-address-bytes-}[`functionCall`],\r\n     * but performing a delegate call.\r\n     *\r\n     * _Available since v3.4._\r\n     */\r\n    function functionDelegateCall(address target, bytes memory data) internal returns (bytes memory) {\r\n        return functionDelegateCall(target, data, \"Address: low-level delegate call failed\");\r\n    }\r\n\r\n    /**\r\n     * @dev Same as {xref-Address-functionCall-address-bytes-string-}[`functionCall`],\r\n     * but performing a delegate call.\r\n     *\r\n     * _Available since v3.4._\r\n     */\r\n    function functionDelegateCall(\r\n        address target,\r\n        bytes memory data,\r\n        string memory errorMessage\r\n    ) internal returns (bytes memory) {\r\n        require(isContract(target), \"Address: delegate call to non-contract\");\r\n\r\n        (bool success, bytes memory returndata) = target.delegatecall(data);\r\n        return verifyCallResult(success, returndata, errorMessage);\r\n    }\r\n\r\n    /**\r\n     * @dev Tool to verifies that a low level call was successful, and revert if it wasn't, either by bubbling the\r\n     * revert reason using the provided one.\r\n     *\r\n     * _Available since v4.3._\r\n     */\r\n    function verifyCallResult(\r\n        bool success,\r\n        bytes memory returndata,\r\n        string memory errorMessage\r\n    ) internal pure returns (bytes memory) {\r\n        if (success) {\r\n            return returndata;\r\n        } else {\r\n            // Look for revert reason and bubble it up if present\r\n            if (returndata.length > 0) {\r\n                // The easiest way to bubble the revert reason is using memory via assembly\r\n\r\n                assembly {\r\n                    let returndata_size := mload(returndata)\r\n                    revert(add(32, returndata), returndata_size)\r\n                }\r\n            } else {\r\n                revert(errorMessage);\r\n            }\r\n        }\r\n    }\r\n}\r\n\r\n// File: ..\\..\\..\\node_modules\\@openzeppelin\\contracts\\utils\\Context.sol\r\n\r\n\r\n// OpenZeppelin Contracts v4.4.1 (utils/Context.sol)\r\n\r\npragma solidity ^0.8.0;\r\n\r\n/**\r\n * @dev Provides information about the current execution context, including the\r\n * sender of the transaction and its data. While these are generally available\r\n * via msg.sender and msg.data, they should not be accessed in such a direct\r\n * manner, since when dealing with meta-transactions the account sending and\r\n * paying for execution may not be the actual sender (as far as an application\r\n * is concerned).\r\n *\r\n * This contract is only required for intermediate, library-like contracts.\r\n */\r\nabstract contract Context {\r\n    function _msgSender() internal view virtual returns (address) {\r\n        return msg.sender;\r\n    }\r\n\r\n    function _msgData() internal view virtual returns (bytes calldata) {\r\n        return msg.data;\r\n    }\r\n}\r\n\r\n// File: ..\\..\\..\\node_modules\\@openzeppelin\\contracts\\utils\\Strings.sol\r\n\r\n\r\n// OpenZeppelin Contracts v4.4.1 (utils/Strings.sol)\r\n\r\npragma solidity ^0.8.0;\r\n\r\n/**\r\n * @dev String operations.\r\n */\r\nlibrary Strings {\r\n    bytes16 private constant _HEX_SYMBOLS = \"0123456789abcdef\";\r\n\r\n    /**\r\n     * @dev Converts a `uint256` to its ASCII `string` decimal representation.\r\n     */\r\n    function toString(uint256 value) internal pure returns (string memory) {\r\n        // Inspired by OraclizeAPI's implementation - MIT licence\r\n        // https://github.com/oraclize/ethereum-api/blob/b42146b063c7d6ee1358846c198246239e9360e8/oraclizeAPI_0.4.25.sol\r\n        if (value == 0) {\r\n            return \"0\";\r\n        }\r\n        uint256 temp = value;\r\n        uint256 digits;\r\n        while (temp != 0) {\r\n            digits++;\r\n            temp /= 10;\r\n        }\r\n        bytes memory buffer = new bytes(digits);\r\n        while (value != 0) {\r\n            digits -= 1;\r\n            buffer[digits] = bytes1(uint8(48 + uint256(value % 10)));\r\n            value /= 10;\r\n        }\r\n        return string(buffer);\r\n    }\r\n\r\n    /**\r\n     * @dev Converts a `uint256` to its ASCII `string` hexadecimal representation.\r\n     */\r\n    function toHexString(uint256 value) internal pure returns (string memory) {\r\n        if (value == 0) {\r\n            return \"0x00\";\r\n        }\r\n        uint256 temp = value;\r\n        uint256 length = 0;\r\n        while (temp != 0) {\r\n            length++;\r\n            temp >>= 8;\r\n        }\r\n        return toHexString(value, length);\r\n    }\r\n\r\n    /**\r\n     * @dev Converts a `uint256` to its ASCII `string` hexadecimal representation with fixed length.\r\n     */\r\n    function toHexString(uint256 value, uint256 length) internal pure returns (string memory) {\r\n        bytes memory buffer = new bytes(2 * length + 2);\r\n        buffer[0] = \"0\";\r\n        buffer[1] = \"x\";\r\n        for (uint256 i = 2 * length + 1; i > 1; --i) {\r\n            buffer[i] = _HEX_SYMBOLS[value & 0xf];\r\n            value >>= 4;\r\n        }\r\n        require(value == 0, \"Strings: hex length insufficient\");\r\n        return string(buffer);\r\n    }\r\n}\r\n\r\n// File: ..\\..\\..\\node_modules\\@openzeppelin\\contracts\\utils\\introspection\\ERC165.sol\r\n\r\n\r\n// OpenZeppelin Contracts v4.4.1 (utils/introspection/ERC165.sol)\r\n\r\npragma solidity ^0.8.0;\r\n\r\n/**\r\n * @dev Implementation of the {IERC165} interface.\r\n *\r\n * Contracts that want to implement ERC165 should inherit from this contract and override {supportsInterface} to check\r\n * for the additional interface id that will be supported. For example:\r\n *\r\n * ```solidity\r\n * function supportsInterface(bytes4 interfaceId) public view virtual override returns (bool) {\r\n *     return interfaceId == type(MyInterface).interfaceId || super.supportsInterface(interfaceId);\r\n * }\r\n * ```\r\n *\r\n * Alternatively, {ERC165Storage} provides an easier to use but more expensive implementation.\r\n */\r\nabstract contract ERC165 is IERC165 {\r\n    /**\r\n     * @dev See {IERC165-supportsInterface}.\r\n     */\r\n    function supportsInterface(bytes4 interfaceId) public view virtual override returns (bool) {\r\n        return interfaceId == type(IERC165).interfaceId;\r\n    }\r\n}\r\n\r\n// File: ..\\..\\..\\node_modules\\@openzeppelin\\contracts\\token\\ERC721\\ERC721.sol\r\n\r\n\r\n// OpenZeppelin Contracts (last updated v4.5.0) (token/ERC721/ERC721.sol)\r\n\r\npragma solidity ^0.8.0;\r\n\r\n\r\n\r\n\r\n\r\n\r\n\r\n/**\r\n * @dev Implementation of https://eips.ethereum.org/EIPS/eip-721[ERC721] Non-Fungible Token Standard, including\r\n * the Metadata extension, but not including the Enumerable extension, which is available separately as\r\n * {ERC721Enumerable}.\r\n */\r\ncontract ERC721 is Context, ERC165, IERC721, IERC721Metadata {\r\n    using Address for address;\r\n    using Strings for uint256;\r\n\r\n    // Token name\r\n    string private _name;\r\n\r\n    // Token symbol\r\n    string private _symbol;\r\n\r\n    // Mapping from token ID to owner address\r\n    mapping(uint256 => address) private _owners;\r\n\r\n    // Mapping owner address to token count\r\n    mapping(address => uint256) private _balances;\r\n\r\n    // Mapping from token ID to approved address\r\n    mapping(uint256 => address) private _tokenApprovals;\r\n\r\n    // Mapping from owner to operator approvals\r\n    mapping(address => mapping(address => bool)) private _operatorApprovals;\r\n\r\n    /**\r\n     * @dev Initializes the contract by setting a `name` and a `symbol` to the token collection.\r\n     */\r\n    constructor(string memory name_, string memory symbol_) {\r\n        _name = name_;\r\n        _symbol = symbol_;\r\n    }\r\n\r\n    /**\r\n     * @dev See {IERC165-supportsInterface}.\r\n     */\r\n    function supportsInterface(bytes4 interfaceId) public view virtual override(ERC165, IERC165) returns (bool) {\r\n        return\r\n            interfaceId == type(IERC721).interfaceId ||\r\n            interfaceId == type(IERC721Metadata).interfaceId ||\r\n            super.supportsInterface(interfaceId);\r\n    }\r\n\r\n    /**\r\n     * @dev See {IERC721-balanceOf}.\r\n     */\r\n    function balanceOf(address owner) public view virtual override returns (uint256) {\r\n        require(owner != address(0), \"ERC721: balance query for the zero address\");\r\n        return _balances[owner];\r\n    }\r\n\r\n    /**\r\n     * @dev See {IERC721-ownerOf}.\r\n     */\r\n    function ownerOf(uint256 tokenId) public view virtual override returns (address) {\r\n        address owner = _owners[tokenId];\r\n        require(owner != address(0), \"ERC721: owner query for nonexistent token\");\r\n        return owner;\r\n    }\r\n\r\n    /**\r\n     * @dev See {IERC721Metadata-name}.\r\n     */\r\n    function name() public view virtual override returns (string memory) {\r\n        return _name;\r\n    }\r\n\r\n    /**\r\n     * @dev See {IERC721Metadata-symbol}.\r\n     */\r\n    function symbol() public view virtual override returns (string memory) {\r\n        return _symbol;\r\n    }\r\n\r\n    /**\r\n     * @dev See {IERC721Metadata-tokenURI}.\r\n     */\r\n    function tokenURI(uint256 tokenId) public view virtual override returns (string memory) {\r\n        require(_exists(tokenId), \"ERC721Metadata: URI query for nonexistent token\");\r\n\r\n        string memory baseURI = _baseURI();\r\n        return bytes(baseURI).length > 0 ? string(abi.encodePacked(baseURI, tokenId.toString())) : \"\";\r\n    }\r\n\r\n    /**\r\n     * @dev Base URI for computing {tokenURI}. If set, the resulting URI for each\r\n     * token will be the concatenation of the `baseURI` and the `tokenId`. Empty\r\n     * by default, can be overriden in child contracts.\r\n     */\r\n    function _baseURI() internal view virtual returns (string memory) {\r\n        return \"\";\r\n    }\r\n\r\n    /**\r\n     * @dev See {IERC721-approve}.\r\n     */\r\n    function approve(address to, uint256 tokenId) public virtual override {\r\n        address owner = ERC721.ownerOf(tokenId);\r\n        require(to != owner, \"ERC721: approval to current owner\");\r\n\r\n        require(\r\n            _msgSender() == owner || isApprovedForAll(owner, _msgSender()),\r\n            \"ERC721: approve caller is not owner nor approved for all\"\r\n        );\r\n\r\n        _approve(to, tokenId);\r\n    }\r\n\r\n    /**\r\n     * @dev See {IERC721-getApproved}.\r\n     */\r\n    function getApproved(uint256 tokenId) public view virtual override returns (address) {\r\n        require(_exists(tokenId), \"ERC721: approved query for nonexistent token\");\r\n\r\n        return _tokenApprovals[tokenId];\r\n    }\r\n\r\n    /**\r\n     * @dev See {IERC721-setApprovalForAll}.\r\n     */\r\n    function setApprovalForAll(address operator, bool approved) public virtual override {\r\n        _setApprovalForAll(_msgSender(), operator, approved);\r\n    }\r\n\r\n    /**\r\n     * @dev See {IERC721-isApprovedForAll}.\r\n     */\r\n    function isApprovedForAll(address owner, address operator) public view virtual override returns (bool) {\r\n        return _operatorApprovals[owner][operator];\r\n    }\r\n\r\n    /**\r\n     * @dev See {IERC721-transferFrom}.\r\n     */\r\n    function transferFrom(\r\n        address from,\r\n        address to,\r\n        uint256 tokenId\r\n    ) public virtual override {\r\n        //solhint-disable-next-line max-line-length\r\n        require(_isApprovedOrOwner(_msgSender(), tokenId), \"ERC721: transfer caller is not owner nor approved\");\r\n\r\n        _transfer(from, to, tokenId);\r\n    }\r\n\r\n    /**\r\n     * @dev See {IERC721-safeTransferFrom}.\r\n     */\r\n    function safeTransferFrom(\r\n        address from,\r\n        address to,\r\n        uint256 tokenId\r\n    ) public virtual override {\r\n        safeTransferFrom(from, to, tokenId, \"\");\r\n    }\r\n\r\n    /**\r\n     * @dev See {IERC721-safeTransferFrom}.\r\n     */\r\n    function safeTransferFrom(\r\n        address from,\r\n        address to,\r\n        uint256 tokenId,\r\n        bytes memory _data\r\n    ) public virtual override {\r\n        require(_isApprovedOrOwner(_msgSender(), tokenId), \"ERC721: transfer caller is not owner nor approved\");\r\n        _safeTransfer(from, to, tokenId, _data);\r\n    }\r\n\r\n    /**\r\n     * @dev Safely transfers `tokenId` token from `from` to `to`, checking first that contract recipients\r\n     * are aware of the ERC721 protocol to prevent tokens from being forever locked.\r\n     *\r\n     * `_data` is additional data, it has no specified format and it is sent in call to `to`.\r\n     *\r\n     * This internal function is equivalent to {safeTransferFrom}, and can be used to e.g.\r\n     * implement alternative mechanisms to perform token transfer, such as signature-based.\r\n     *\r\n     * Requirements:\r\n     *\r\n     * - `from` cannot be the zero address.\r\n     * - `to` cannot be the zero address.\r\n     * - `tokenId` token must exist and be owned by `from`.\r\n     * - If `to` refers to a smart contract, it must implement {IERC721Receiver-onERC721Received}, which is called upon a safe transfer.\r\n     *\r\n     * Emits a {Transfer} event.\r\n     */\r\n    function _safeTransfer(\r\n        address from,\r\n        address to,\r\n        uint256 tokenId,\r\n        bytes memory _data\r\n    ) internal virtual {\r\n        _transfer(from, to, tokenId);\r\n        require(_checkOnERC721Received(from, to, tokenId, _data), \"ERC721: transfer to non ERC721Receiver implementer\");    }\r\n\r\n    /**\r\n     * @dev Returns whether `tokenId` exists.\r\n     *\r\n     * Tokens can be managed by their owner or approved accounts via {approve} or {setApprovalForAll}.\r\n     *\r\n     * Tokens start existing when they are minted (`_mint`),\r\n     * and stop existing when they are burned (`_burn`).\r\n     */\r\n    function _exists(uint256 tokenId) internal view virtual returns (bool) {\r\n        return _owners[tokenId] != address(0);\r\n    }\r\n\r\n    /**\r\n     * @dev Returns whether `spender` is allowed to manage `tokenId`.\r\n     *\r\n     * Requirements:\r\n     *\r\n     * - `tokenId` must exist.\r\n     */\r\n    function _isApprovedOrOwner(address spender, uint256 tokenId) internal view virtual returns (bool) {\r\n        require(_exists(tokenId), \"ERC721: operator query for nonexistent token\");\r\n        address owner = ERC721.ownerOf(tokenId);\r\n        return (spender == owner || getApproved(tokenId) == spender || isApprovedForAll(owner, spender));\r\n    }\r\n\r\n    /**\r\n     * @dev Safely mints `tokenId` and transfers it to `to`.\r\n     *\r\n     * Requirements:\r\n     *\r\n     * - `tokenId` must not exist.\r\n     * - If `to` refers to a smart contract, it must implement {IERC721Receiver-onERC721Received}, which is called upon a safe transfer.\r\n     *\r\n     * Emits a {Transfer} event.\r\n     */\r\n    function _safeMint(address to, uint256 tokenId) internal virtual {\r\n        _safeMint(to, tokenId, \"\");\r\n    }\r\n\r\n    /**\r\n     * @dev Same as {xref-ERC721-_safeMint-address-uint256-}[`_safeMint`], with an additional `data` parameter which is\r\n     * forwarded in {IERC721Receiver-onERC721Received} to contract recipients.\r\n     */\r\n    function _safeMint(\r\n        address to,\r\n        uint256 tokenId,\r\n        bytes memory _data\r\n    ) internal virtual {\r\n        _mint(to, tokenId);\r\n        require(\r\n            _checkOnERC721Received(address(0), to, tokenId, _data),\r\n            \"ERC721: transfer to non ERC721Receiver implementer\"\r\n        );\r\n    }\r\n\r\n    /**\r\n     * @dev Mints `tokenId` and transfers it to `to`.\r\n     *\r\n     * WARNING: Usage of this method is discouraged, use {_safeMint} whenever possible\r\n     *\r\n     * Requirements:\r\n     *\r\n     * - `tokenId` must not exist.\r\n     * - `to` cannot be the zero address.\r\n     *\r\n     * Emits a {Transfer} event.\r\n     */\r\n    function _mint(address to, uint256 tokenId) internal virtual {\r\n        require(to != address(0), \"ERC721: mint to the zero address\");\r\n        require(!_exists(tokenId), \"ERC721: token already minted\");\r\n\r\n        _beforeTokenTransfer(address(0), to, tokenId);\r\n\r\n        _balances[to] += 1;\r\n        _owners[tokenId] = to;\r\n\r\n        emit Transfer(address(0), to, tokenId);\r\n\r\n        _afterTokenTransfer(address(0), to, tokenId);\r\n    }\r\n\r\n    /**\r\n     * @dev Destroys `tokenId`.\r\n     * The approval is cleared when the token is burned.\r\n     *\r\n     * Requirements:\r\n     *\r\n     * - `tokenId` must exist.\r\n     *\r\n     * Emits a {Transfer} event.\r\n     */\r\n    function _burn(uint256 tokenId) internal virtual {\r\n        address owner = ERC721.ownerOf(tokenId);\r\n\r\n        _beforeTokenTransfer(owner, address(0), tokenId);\r\n\r\n        // Clear approvals\r\n        _approve(address(0), tokenId);\r\n\r\n        _balances[owner] -= 1;\r\n        delete _owners[tokenId];\r\n\r\n        emit Transfer(owner, address(0), tokenId);\r\n\r\n        _afterTokenTransfer(owner, address(0), tokenId);\r\n    }\r\n\r\n    /**\r\n     * @dev Transfers `tokenId` from `from` to `to`.\r\n     *  As opposed to {transferFrom}, this imposes no restrictions on msg.sender.\r\n     *\r\n     * Requirements:\r\n     *\r\n     * - `to` cannot be the zero address.\r\n     * - `tokenId` token must be owned by `from`.\r\n     *\r\n     * Emits a {Transfer} event.\r\n     */\r\n    function _transfer(\r\n        address from,\r\n        address to,\r\n        uint256 tokenId\r\n    ) internal virtual {\r\n        require(ERC721.ownerOf(tokenId) == from, \"ERC721: transfer from incorrect owner\");\r\n        require(to != address(0), \"ERC721: transfer to the zero address\");\r\n\r\n        _beforeTokenTransfer(from, to, tokenId);\r\n\r\n        // Clear approvals from the previous owner\r\n        _approve(address(0), tokenId);\r\n\r\n        _balances[from] -= 1;\r\n        _balances[to] += 1;\r\n        _owners[tokenId] = to;\r\n\r\n        emit Transfer(from, to, tokenId);\r\n\r\n        _afterTokenTransfer(from, to, tokenId);\r\n    }\r\n\r\n    /**\r\n     * @dev Approve `to` to operate on `tokenId`\r\n     *\r\n     * Emits a {Approval} event.\r\n     */\r\n    function _approve(address to, uint256 tokenId) internal virtual {\r\n        _tokenApprovals[tokenId] = to;\r\n        emit Approval(ERC721.ownerOf(tokenId), to, tokenId);\r\n    }\r\n\r\n    /**\r\n     * @dev Approve `operator` to operate on all of `owner` tokens\r\n     *\r\n     * Emits a {ApprovalForAll} event.\r\n     */\r\n    function _setApprovalForAll(\r\n        address owner,\r\n        address operator,\r\n        bool approved\r\n    ) internal virtual {\r\n        require(owner != operator, \"ERC721: approve to caller\");\r\n        _operatorApprovals[owner][operator] = approved;\r\n        emit ApprovalForAll(owner, operator, approved);\r\n    }\r\n\r\n    /**\r\n     * @dev Internal function to invoke {IERC721Receiver-onERC721Received} on a target address.\r\n     * The call is not executed if the target address is not a contract.\r\n     *\r\n     * @param from address representing the previous owner of the given token ID\r\n     * @param to target address that will receive the tokens\r\n     * @param tokenId uint256 ID of the token to be transferred\r\n     * @param _data bytes optional data to send along with the call\r\n     * @return bool whether the call correctly returned the expected magic value\r\n     */\r\n    function _checkOnERC721Received(\r\n        address from,\r\n        address to,\r\n        uint256 tokenId,\r\n        bytes memory _data\r\n    ) private returns (bool) {\r\n        if (to.isContract()) {\r\n            try IERC721Receiver(to).onERC721Received(_msgSender(), from, tokenId, _data) returns (bytes4 retval) {\r\n                return retval == IERC721Receiver.onERC721Received.selector;\r\n            } catch (bytes memory reason) {\r\n                if (reason.length == 0) {\r\n                    revert(\"ERC721: transfer to non ERC721Receiver implementer\");\r\n                } else {\r\n                    assembly {\r\n                        revert(add(32, reason), mload(reason))\r\n                    }\r\n                }\r\n            }\r\n        } else {\r\n            return true;\r\n        }\r\n    }\r\n\r\n    /**\r\n     * @dev Hook that is called before any token transfer. This includes minting\r\n     * and burning.\r\n     *\r\n     * Calling conditions:\r\n     *\r\n     * - When `from` and `to` are both non-zero, ``from``'s `tokenId` will be\r\n     * transferred to `to`.\r\n     * - When `from` is zero, `tokenId` will be minted for `to`.\r\n     * - When `to` is zero, ``from``'s `tokenId` will be burned.\r\n     * - `from` and `to` are never both zero.\r\n     *\r\n     * To learn more about hooks, head to xref:ROOT:extending-contracts.adoc#using-hooks[Using Hooks].\r\n     */\r\n    function _beforeTokenTransfer(\r\n        address from,\r\n        address to,\r\n        uint256 tokenId\r\n    ) internal virtual {}\r\n\r\n    /**\r\n     * @dev Hook that is called after any transfer of tokens. This includes\r\n     * minting and burning.\r\n     *\r\n     * Calling conditions:\r\n     *\r\n     * - when `from` and `to` are both non-zero.\r\n     * - `from` and `to` are never both zero.\r\n     *\r\n     * To learn more about hooks, head to xref:ROOT:extending-contracts.adoc#using-hooks[Using Hooks].\r\n     */\r\n    function _afterTokenTransfer(\r\n        address from,\r\n        address to,\r\n        uint256 tokenId\r\n    ) internal virtual {}\r\n}\r\n\r\n// File: ..\\..\\..\\node_modules\\@openzeppelin\\contracts\\token\\ERC721\\extensions\\IERC721Enumerable.sol\r\n\r\n\r\n// OpenZeppelin Contracts (last updated v4.5.0) (token/ERC721/extensions/IERC721Enumerable.sol)\r\n\r\npragma solidity ^0.8.0;\r\n\r\n/**\r\n * @title ERC-721 Non-Fungible Token Standard, optional enumeration extension\r\n * @dev See https://eips.ethereum.org/EIPS/eip-721\r\n */\r\ninterface IERC721Enumerable is IERC721 {\r\n    /**\r\n     * @dev Returns the total amount of tokens stored by the contract.\r\n     */\r\n    function totalSupply() external view returns (uint256);\r\n\r\n    /**\r\n     * @dev Returns a token ID owned by `owner` at a given `index` of its token list.\r\n     * Use along with {balanceOf} to enumerate all of ``owner``'s tokens.\r\n     */\r\n    function tokenOfOwnerByIndex(address owner, uint256 index) external view returns (uint256);\r\n\r\n    /**\r\n     * @dev Returns a token ID at a given `index` of all the tokens stored by the contract.\r\n     * Use along with {totalSupply} to enumerate all tokens.\r\n     */\r\n    function tokenByIndex(uint256 index) external view returns (uint256);\r\n}\r\n\r\n// File: @openzeppelin\\contracts\\token\\ERC721\\extensions\\ERC721Enumerable.sol\r\n\r\n\r\n// OpenZeppelin Contracts v4.4.1 (token/ERC721/extensions/ERC721Enumerable.sol)\r\n\r\npragma solidity ^0.8.0;\r\n\r\n\r\n/**\r\n * @dev This implements an optional extension of {ERC721} defined in the EIP that adds\r\n * enumerability of all the token ids in the contract as well as all token ids owned by each\r\n * account.\r\n */\r\nabstract contract ERC721Enumerable is ERC721, IERC721Enumerable {\r\n    // Mapping from owner to list of owned token IDs\r\n    mapping(address => mapping(uint256 => uint256)) private _ownedTokens;\r\n\r\n    // Mapping from token ID to index of the owner tokens list\r\n    mapping(uint256 => uint256) private _ownedTokensIndex;\r\n\r\n    // Array with all token ids, used for enumeration\r\n    uint256[] private _allTokens;\r\n\r\n    // Mapping from token id to position in the allTokens array\r\n    mapping(uint256 => uint256) private _allTokensIndex;\r\n\r\n    /**\r\n     * @dev See {IERC165-supportsInterface}.\r\n     */\r\n    function supportsInterface(bytes4 interfaceId) public view virtual override(IERC165, ERC721) returns (bool) {\r\n        return interfaceId == type(IERC721Enumerable).interfaceId || super.supportsInterface(interfaceId);\r\n    }\r\n\r\n    /**\r\n     * @dev See {IERC721Enumerable-tokenOfOwnerByIndex}.\r\n     */\r\n    function tokenOfOwnerByIndex(address owner, uint256 index) public view virtual override returns (uint256) {\r\n        require(index < ERC721.balanceOf(owner), \"ERC721Enumerable: owner index out of bounds\");\r\n        return _ownedTokens[owner][index];\r\n    }\r\n\r\n    /**\r\n     * @dev See {IERC721Enumerable-totalSupply}.\r\n     */\r\n    function totalSupply() public view virtual override returns (uint256) {\r\n        return _allTokens.length;\r\n    }\r\n\r\n    /**\r\n     * @dev See {IERC721Enumerable-tokenByIndex}.\r\n     */\r\n    function tokenByIndex(uint256 index) public view virtual override returns (uint256) {\r\n        require(index < ERC721Enumerable.totalSupply(), \"ERC721Enumerable: global index out of bounds\");\r\n        return _allTokens[index];\r\n    }\r\n\r\n    /**\r\n     * @dev Hook that is called before any token transfer. This includes minting\r\n     * and burning.\r\n     *\r\n     * Calling conditions:\r\n     *\r\n     * - When `from` and `to` are both non-zero, ``from``'s `tokenId` will be\r\n     * transferred to `to`.\r\n     * - When `from` is zero, `tokenId` will be minted for `to`.\r\n     * - When `to` is zero, ``from``'s `tokenId` will be burned.\r\n     * - `from` cannot be the zero address.\r\n     * - `to` cannot be the zero address.\r\n     *\r\n     * To learn more about hooks, head to xref:ROOT:extending-contracts.adoc#using-hooks[Using Hooks].\r\n     */\r\n    function _beforeTokenTransfer(\r\n        address from,\r\n        address to,\r\n        uint256 tokenId\r\n    ) internal virtual override {\r\n        super._beforeTokenTransfer(from, to, tokenId);\r\n\r\n        if (from == address(0)) {\r\n            _addTokenToAllTokensEnumeration(tokenId);\r\n        } else if (from != to) {\r\n            _removeTokenFromOwnerEnumeration(from, tokenId);\r\n        }\r\n        if (to == address(0)) {\r\n            _removeTokenFromAllTokensEnumeration(tokenId);\r\n        } else if (to != from) {\r\n            _addTokenToOwnerEnumeration(to, tokenId);\r\n        }\r\n    }\r\n\r\n    /**\r\n     * @dev Private function to add a token to this extension's ownership-tracking data structures.\r\n     * @param to address representing the new owner of the given token ID\r\n     * @param tokenId uint256 ID of the token to be added to the tokens list of the given address\r\n     */\r\n    function _addTokenToOwnerEnumeration(address to, uint256 tokenId) private {\r\n        uint256 length = ERC721.balanceOf(to);\r\n        _ownedTokens[to][length] = tokenId;\r\n        _ownedTokensIndex[tokenId] = length;\r\n    }\r\n\r\n    /**\r\n     * @dev Private function to add a token to this extension's token tracking data structures.\r\n     * @param tokenId uint256 ID of the token to be added to the tokens list\r\n     */\r\n    function _addTokenToAllTokensEnumeration(uint256 tokenId) private {\r\n        _allTokensIndex[tokenId] = _allTokens.length;\r\n        _allTokens.push(tokenId);\r\n    }\r\n\r\n    /**\r\n     * @dev Private function to remove a token from this extension's ownership-tracking data structures. Note that\r\n     * while the token is not assigned a new owner, the `_ownedTokensIndex` mapping is _not_ updated: this allows for\r\n     * gas optimizations e.g. when performing a transfer operation (avoiding double writes).\r\n     * This has O(1) time complexity, but alters the order of the _ownedTokens array.\r\n     * @param from address representing the previous owner of the given token ID\r\n     * @param tokenId uint256 ID of the token to be removed from the tokens list of the given address\r\n     */\r\n    function _removeTokenFromOwnerEnumeration(address from, uint256 tokenId) private {\r\n        // To prevent a gap in from's tokens array, we store the last token in the index of the token to delete, and\r\n        // then delete the last slot (swap and pop).\r\n\r\n        uint256 lastTokenIndex = ERC721.balanceOf(from) - 1;\r\n        uint256 tokenIndex = _ownedTokensIndex[tokenId];\r\n\r\n        // When the token to delete is the last token, the swap operation is unnecessary\r\n        if (tokenIndex != lastTokenIndex) {\r\n            uint256 lastTokenId = _ownedTokens[from][lastTokenIndex];\r\n\r\n            _ownedTokens[from][tokenIndex] = lastTokenId; // Move the last token to the slot of the to-delete token\r\n            _ownedTokensIndex[lastTokenId] = tokenIndex; // Update the moved token's index\r\n        }\r\n\r\n        // This also deletes the contents at the last position of the array\r\n        delete _ownedTokensIndex[tokenId];\r\n        delete _ownedTokens[from][lastTokenIndex];\r\n    }\r\n\r\n    /**\r\n     * @dev Private function to remove a token from this extension's token tracking data structures.\r\n     * This has O(1) time complexity, but alters the order of the _allTokens array.\r\n     * @param tokenId uint256 ID of the token to be removed from the tokens list\r\n     */\r\n    function _removeTokenFromAllTokensEnumeration(uint256 tokenId) private {\r\n        // To prevent a gap in the tokens array, we store the last token in the index of the token to delete, and\r\n        // then delete the last slot (swap and pop).\r\n\r\n        uint256 lastTokenIndex = _allTokens.length - 1;\r\n        uint256 tokenIndex = _allTokensIndex[tokenId];\r\n\r\n        // When the token to delete is the last token, the swap operation is unnecessary. However, since this occurs so\r\n        // rarely (when the last minted token is burnt) that we still do the swap here to avoid the gas cost of adding\r\n        // an 'if' statement (like in _removeTokenFromOwnerEnumeration)\r\n        uint256 lastTokenId = _allTokens[lastTokenIndex];\r\n\r\n        _allTokens[tokenIndex] = lastTokenId; // Move the last token to the slot of the to-delete token\r\n        _allTokensIndex[lastTokenId] = tokenIndex; // Update the moved token's index\r\n\r\n        // This also deletes the contents at the last position of the array\r\n        delete _allTokensIndex[tokenId];\r\n        _allTokens.pop();\r\n    }\r\n}\r\n\r\n// File: @openzeppelin\\contracts\\access\\Ownable.sol\r\n\r\n\r\n// OpenZeppelin Contracts v4.4.1 (access/Ownable.sol)\r\n\r\npragma solidity ^0.8.0;\r\n\r\n/**\r\n * @dev Contract module which provides a basic access control mechanism, where\r\n * there is an account (an owner) that can be granted exclusive access to\r\n * specific functions.\r\n *\r\n * By default, the owner account will be the one that deploys the contract. This\r\n * can later be changed with {transferOwnership}.\r\n *\r\n * This module is used through inheritance. It will make available the modifier\r\n * `onlyOwner`, which can be applied to your functions to restrict their use to\r\n * the owner.\r\n */\r\nabstract contract Ownable is Context {\r\n    address private _owner;\r\n\r\n    event OwnershipTransferred(address indexed previousOwner, address indexed newOwner);\r\n\r\n    /**\r\n     * @dev Initializes the contract setting the deployer as the initial owner.\r\n     */\r\n    constructor() {\r\n        _transferOwnership(_msgSender());\r\n    }\r\n\r\n    /**\r\n     * @dev Returns the address of the current owner.\r\n     */\r\n    function owner() public view virtual returns (address) {\r\n        return _owner;\r\n    }\r\n\r\n    /**\r\n     * @dev Throws if called by any account other than the owner.\r\n     */\r\n    modifier onlyOwner() {\r\n        require(owner() == _msgSender(), \"Ownable: caller is not the owner\");\r\n        _;\r\n    }\r\n\r\n    /**\r\n     * @dev Leaves the contract without owner. It will not be possible to call\r\n     * `onlyOwner` functions anymore. Can only be called by the current owner.\r\n     *\r\n     * NOTE: Renouncing ownership will leave the contract without an owner,\r\n     * thereby removing any functionality that is only available to the owner.\r\n     */\r\n    function renounceOwnership() public virtual onlyOwner {\r\n        _transferOwnership(address(0));\r\n    }\r\n\r\n    /**\r\n     * @dev Transfers ownership of the contract to a new account (`newOwner`).\r\n     * Can only be called by the current owner.\r\n     */\r\n    function transferOwnership(address newOwner) public virtual onlyOwner {\r\n        require(newOwner != address(0), \"Ownable: new owner is the zero address\");\r\n        _transferOwnership(newOwner);\r\n    }\r\n\r\n    /**\r\n     * @dev Transfers ownership of the contract to a new account (`newOwner`).\r\n     * Internal function without access restriction.\r\n     */\r\n    function _transferOwnership(address newOwner) internal virtual {\r\n        address oldOwner = _owner;\r\n        _owner = newOwner;\r\n        emit OwnershipTransferred(oldOwner, newOwner);\r\n    }\r\n}\r\n\r\n// File: contracts\\MinerGlobal.sol\r\n\r\n\r\npragma solidity 0.8.9;\r\ncontract MinerGlobal is ERC721Enumerable, Ownable {\r\n    using Address for address;\r\n\r\n    // Starting and stopping sale, presale and whitelist\r\n    bool public saleActive = false;\r\n    bool public whitelistActive = false;\r\n    bool public presaleActive = false;\r\n\r\n    // Reserved for the team, customs, giveaways, collabs and so on.\r\n    uint256 public reserved = 150;\r\n\r\n    // Price of each token\r\n    uint256 public initial_price = 0.04 ether;\r\n    uint256 public price;\r\n\r\n    // Maximum limit of tokens that can ever exist\r\n    uint256 public constant MAX_SUPPLY = 10000;\r\n    uint256 public constant MAX_PRESALE_SUPPLY = 500;\r\n    uint256 public constant MAX_MINT_PER_TX = 20;\r\n\r\n    // The base link that leads to the image / video of the token\r\n    string public baseTokenURI = \"https://157.245.126.14.io/\";\r\n\r\n    // Team addresses for withdrawals\r\n    address public a1;\r\n    address public a2;\r\n    address public a3;\r\n\r\n    // List of addresses that have a number of reserved tokens for whitelist\r\n    mapping (address => uint256) public whitelistReserved;\r\n\r\n    constructor () ERC721 (\"Miner Global\", \"MG\") {\r\n        price = initial_price;\r\n    }\r\n\r\n    // Override so the openzeppelin tokenURI() method will use this method to create the full tokenURI instead\r\n    function _baseURI() internal view virtual override returns (string memory) {\r\n        return baseTokenURI;\r\n    }\r\n\r\n    // See which address owns which tokens\r\n    function tokensOfOwner(address addr) public view returns(uint256[] memory) {\r\n        uint256 tokenCount = balanceOf(addr);\r\n        uint256[] memory tokensId = new uint256[](tokenCount);\r\n        for(uint256 i; i < tokenCount; i++){\r\n            tokensId[i] = tokenOfOwnerByIndex(addr, i);\r\n        }\r\n        return tokensId;\r\n    }\r\n\r\n    // Exclusive whitelist minting\r\n    function mintWhitelist(uint256 _amount) public payable {\r\n        uint256 supply = totalSupply();\r\n        uint256 reservedAmt = whitelistReserved[msg.sender];\r\n        require( whitelistActive,                   \"Whitelist isn't active\" );\r\n        require( reservedAmt > 0,                   \"No tokens reserved for your address\" );\r\n        require( _amount <= reservedAmt,            \"Can't mint more than reserved\" );\r\n        require( supply + _amount <= MAX_SUPPLY,    \"Can't mint more than max supply\" );\r\n        require( msg.value == price * _amount,      \"Wrong amount of ETH sent\" );\r\n        whitelistReserved[msg.sender] = reservedAmt - _amount;\r\n        for(uint256 i; i < _amount; i++){\r\n            _safeMint( msg.sender, supply + i );\r\n        }\r\n    }\r\n\r\n    // Presale minting\r\n    function mintPresale(uint256 _amount) public payable {\r\n        uint256 supply = totalSupply();\r\n        require( presaleActive,                             \"Sale isn't active\" );\r\n        require( _amount > 0 && _amount <= MAX_MINT_PER_TX, \"Can only mint between 1 and 20 tokens at once\" );\r\n        require( supply + _amount <= MAX_PRESALE_SUPPLY,    \"Can't mint more than max supply\" );\r\n        require( msg.value == price * _amount,              \"Wrong amount of ETH sent\" );\r\n        for(uint256 i; i < _amount; i++){\r\n            _safeMint( msg.sender, supply + i );\r\n        }\r\n    }\r\n\r\n    // Standard mint function\r\n    function mintToken(uint256 _amount) public payable {\r\n        uint256 supply = totalSupply();\r\n        require( saleActive,                                \"Sale isn't active\" );\r\n        require( _amount > 0 && _amount <= MAX_MINT_PER_TX, \"Can only mint between 1 and 10 tokens at once\" );\r\n        require( supply + _amount <= MAX_SUPPLY,            \"Can't mint more than max supply\" );\r\n        require( msg.value == price * _amount,              \"Wrong amount of ETH sent\" );\r\n        for(uint256 i; i < _amount; i++){\r\n            _safeMint( msg.sender, supply + i );\r\n        }\r\n    }\r\n\r\n    // Admin minting function to reserve tokens for the team, collabs, customs and giveaways\r\n    function mintReserved(uint256 _amount) public onlyOwner {\r\n        // Limited to a publicly set amount\r\n        require( _amount <= reserved, \"Can't reserve more than set amount\" );\r\n        reserved -= _amount;\r\n        uint256 supply = totalSupply();\r\n        for(uint256 i; i < _amount; i++){\r\n            _safeMint( msg.sender, supply + i );\r\n        }\r\n    }\r\n\r\n    // Edit reserved whitelist spots\r\n    function editWhitelistReserved(address[] memory _a, uint256[] memory _amount) public onlyOwner {\r\n        for(uint256 i; i < _a.length; i++){\r\n            whitelistReserved[_a[i]] = _amount[i];\r\n        }\r\n    }\r\n\r\n    // Start and stop whitelist\r\n    function setWhitelistActive(bool val) public onlyOwner {\r\n        whitelistActive = val;\r\n    }\r\n\r\n    // Start and stop presale\r\n    function setPresaleActive(bool val) public onlyOwner {\r\n        presaleActive = val;\r\n    }\r\n\r\n    // Start and stop sale\r\n    function setSaleActive(bool val) public onlyOwner {\r\n        saleActive = val;\r\n    }\r\n\r\n    // Set new baseURI\r\n    function setBaseURI(string memory baseURI) public onlyOwner {\r\n        baseTokenURI = baseURI;\r\n    }\r\n\r\n    // Set a different price in case ETH changes drastically\r\n    function setPrice(uint256 newPrice) public onlyOwner {\r\n        price = newPrice;\r\n    }\r\n\r\n    // Set team addresses\r\n    function setAddresses(address[] memory _a) public onlyOwner {\r\n        a1 = _a[0];\r\n        a2 = _a[1];\r\n        a3 = _a[2];\r\n    }\r\n\r\n    // Withdraw funds from contract for the team\r\n    function withdrawTeam(uint256 amount) public payable onlyOwner {\r\n        uint256 percent = amount / 100;\r\n        require(payable(a1).send(percent * 40));\r\n        require(payable(a2).send(percent * 30));\r\n        require(payable(a3).send(percent * 30));\r\n    }\r\n}\r\n",
  "sourcePath": "C:\\Users\\Dedson\\Desktop\\nft generador\\NFTCollectionTemplate\\contracts\\MinerGlobal.sol",
  "compiler": {
    "name": "solc",
    "version": "0.8.9+commit.e5eed63a.Emscripten.clang"
  },
  "schemaVersion": "3.4.4",
  "updatedAt": "2022-02-23T23:19:17.557Z",
  "networkType": "ethereum",
  "devdoc": {
    "kind": "dev",
    "methods": {
      "approve(address,uint256)": {
        "details": "See {IERC721-approve}."
      },
      "balanceOf(address)": {
        "details": "See {IERC721-balanceOf}."
      },
      "getApproved(uint256)": {
        "details": "See {IERC721-getApproved}."
      },
      "isApprovedForAll(address,address)": {
        "details": "See {IERC721-isApprovedForAll}."
      },
      "name()": {
        "details": "See {IERC721Metadata-name}."
      },
      "owner()": {
        "details": "Returns the address of the current owner."
      },
      "ownerOf(uint256)": {
        "details": "See {IERC721-ownerOf}."
      },
      "renounceOwnership()": {
        "details": "Leaves the contract without owner. It will not be possible to call `onlyOwner` functions anymore. Can only be called by the current owner. NOTE: Renouncing ownership will leave the contract without an owner, thereby removing any functionality that is only available to the owner."
      },
      "safeTransferFrom(address,address,uint256)": {
        "details": "See {IERC721-safeTransferFrom}."
      },
      "safeTransferFrom(address,address,uint256,bytes)": {
        "details": "See {IERC721-safeTransferFrom}."
      },
      "setApprovalForAll(address,bool)": {
        "details": "See {IERC721-setApprovalForAll}."
      },
      "supportsInterface(bytes4)": {
        "details": "See {IERC165-supportsInterface}."
      },
      "symbol()": {
        "details": "See {IERC721Metadata-symbol}."
      },
      "tokenByIndex(uint256)": {
        "details": "See {IERC721Enumerable-tokenByIndex}."
      },
      "tokenOfOwnerByIndex(address,uint256)": {
        "details": "See {IERC721Enumerable-tokenOfOwnerByIndex}."
      },
      "tokenURI(uint256)": {
        "details": "See {IERC721Metadata-tokenURI}."
      },
      "totalSupply()": {
        "details": "See {IERC721Enumerable-totalSupply}."
      },
      "transferFrom(address,address,uint256)": {
        "details": "See {IERC721-transferFrom}."
      },
      "transferOwnership(address)": {
        "details": "Transfers ownership of the contract to a new account (`newOwner`). Can only be called by the current owner."
      }
    },
    "version": 1
  },
  "userdoc": {
    "kind": "user",
    "methods": {},
    "version": 1
  }
}